{
  "_format": "hh-sol-artifact-1",
  "contractName": "GratitudeCoin",
  "sourceName": "src/contracts/GratitudeCoin.sol",
  "abi": [
    {
      "inputs": [
        {
          "internalType": "uint256",
          "name": "initialSupply",
          "type": "uint256"
        }
      ],
      "stateMutability": "nonpayable",
      "type": "constructor"
    },
    {
      "anonymous": false,
      "inputs": [
        {
          "indexed": true,
          "internalType": "address",
          "name": "owner",
          "type": "address"
        },
        {
          "indexed": true,
          "internalType": "address",
          "name": "spender",
          "type": "address"
        },
        {
          "indexed": false,
          "internalType": "uint256",
          "name": "value",
          "type": "uint256"
        }
      ],
      "name": "Approval",
      "type": "event"
    },
    {
      "anonymous": false,
      "inputs": [
        {
          "indexed": false,
          "internalType": "string",
          "name": "guidelineSummary",
          "type": "string"
        },
        {
          "indexed": false,
          "internalType": "string",
          "name": "guideline",
          "type": "string"
        }
      ],
      "name": "GuidelineCreated",
      "type": "event"
    },
    {
      "anonymous": false,
      "inputs": [
        {
          "indexed": false,
          "internalType": "string",
          "name": "sacredStatement",
          "type": "string"
        }
      ],
      "name": "SacredEvent",
      "type": "event"
    },
    {
      "anonymous": false,
      "inputs": [
        {
          "indexed": true,
          "internalType": "address",
          "name": "from",
          "type": "address"
        },
        {
          "indexed": true,
          "internalType": "address",
          "name": "to",
          "type": "address"
        },
        {
          "indexed": false,
          "internalType": "uint256",
          "name": "value",
          "type": "uint256"
        }
      ],
      "name": "Transfer",
      "type": "event"
    },
    {
      "inputs": [
        {
          "internalType": "string",
          "name": "_name",
          "type": "string"
        },
        {
          "internalType": "string",
          "name": "_message",
          "type": "string"
        }
      ],
      "name": "_sacredMessage",
      "outputs": [],
      "stateMutability": "nonpayable",
      "type": "function"
    },
    {
      "inputs": [
        {
          "internalType": "address",
          "name": "owner",
          "type": "address"
        },
        {
          "internalType": "address",
          "name": "spender",
          "type": "address"
        }
      ],
      "name": "allowance",
      "outputs": [
        {
          "internalType": "uint256",
          "name": "",
          "type": "uint256"
        }
      ],
      "stateMutability": "view",
      "type": "function"
    },
    {
      "inputs": [
        {
          "internalType": "address",
          "name": "spender",
          "type": "address"
        },
        {
          "internalType": "uint256",
          "name": "amount",
          "type": "uint256"
        }
      ],
      "name": "approve",
      "outputs": [
        {
          "internalType": "bool",
          "name": "",
          "type": "bool"
        }
      ],
      "stateMutability": "nonpayable",
      "type": "function"
    },
    {
      "inputs": [
        {
          "internalType": "address",
          "name": "account",
          "type": "address"
        }
      ],
      "name": "balanceOf",
      "outputs": [
        {
          "internalType": "uint256",
          "name": "",
          "type": "uint256"
        }
      ],
      "stateMutability": "view",
      "type": "function"
    },
    {
      "inputs": [],
      "name": "decimals",
      "outputs": [
        {
          "internalType": "uint8",
          "name": "",
          "type": "uint8"
        }
      ],
      "stateMutability": "view",
      "type": "function"
    },
    {
      "inputs": [
        {
          "internalType": "address",
          "name": "spender",
          "type": "address"
        },
        {
          "internalType": "uint256",
          "name": "subtractedValue",
          "type": "uint256"
        }
      ],
      "name": "decreaseAllowance",
      "outputs": [
        {
          "internalType": "bool",
          "name": "",
          "type": "bool"
        }
      ],
      "stateMutability": "nonpayable",
      "type": "function"
    },
    {
      "inputs": [
        {
          "internalType": "uint256",
          "name": "",
          "type": "uint256"
        }
      ],
      "name": "guidelines",
      "outputs": [
        {
          "internalType": "string",
          "name": "summary",
          "type": "string"
        },
        {
          "internalType": "string",
          "name": "guideline",
          "type": "string"
        }
      ],
      "stateMutability": "view",
      "type": "function"
    },
    {
      "inputs": [
        {
          "internalType": "address",
          "name": "spender",
          "type": "address"
        },
        {
          "internalType": "uint256",
          "name": "addedValue",
          "type": "uint256"
        }
      ],
      "name": "increaseAllowance",
      "outputs": [
        {
          "internalType": "bool",
          "name": "",
          "type": "bool"
        }
      ],
      "stateMutability": "nonpayable",
      "type": "function"
    },
    {
      "inputs": [],
      "name": "name",
      "outputs": [
        {
          "internalType": "string",
          "name": "",
          "type": "string"
        }
      ],
      "stateMutability": "view",
      "type": "function"
    },
    {
      "inputs": [],
      "name": "numberOfGuidelines",
      "outputs": [
        {
          "internalType": "uint256",
          "name": "",
          "type": "uint256"
        }
      ],
      "stateMutability": "view",
      "type": "function"
    },
    {
      "inputs": [],
      "name": "returnAllGuidelines",
      "outputs": [
        {
          "components": [
            {
              "internalType": "string",
              "name": "summary",
              "type": "string"
            },
            {
              "internalType": "string",
              "name": "guideline",
              "type": "string"
            }
          ],
          "internalType": "struct SacredCoin.Guideline[]",
          "name": "",
          "type": "tuple[]"
        }
      ],
      "stateMutability": "view",
      "type": "function"
    },
    {
      "inputs": [
        {
          "internalType": "uint256",
          "name": "_index",
          "type": "uint256"
        }
      ],
      "name": "returnSingleGuideline",
      "outputs": [
        {
          "internalType": "string",
          "name": "",
          "type": "string"
        },
        {
          "internalType": "string",
          "name": "",
          "type": "string"
        }
      ],
      "stateMutability": "view",
      "type": "function"
    },
    {
      "inputs": [],
      "name": "symbol",
      "outputs": [
        {
          "internalType": "string",
          "name": "",
          "type": "string"
        }
      ],
      "stateMutability": "view",
      "type": "function"
    },
    {
      "inputs": [],
      "name": "totalSupply",
      "outputs": [
        {
          "internalType": "uint256",
          "name": "",
          "type": "uint256"
        }
      ],
      "stateMutability": "view",
      "type": "function"
    },
    {
      "inputs": [
        {
          "internalType": "address",
          "name": "to",
          "type": "address"
        },
        {
          "internalType": "uint256",
          "name": "amount",
          "type": "uint256"
        }
      ],
      "name": "transfer",
      "outputs": [
        {
          "internalType": "bool",
          "name": "",
          "type": "bool"
        }
      ],
      "stateMutability": "nonpayable",
      "type": "function"
    },
    {
      "inputs": [
        {
          "internalType": "address",
          "name": "from",
          "type": "address"
        },
        {
          "internalType": "address",
          "name": "to",
          "type": "address"
        },
        {
          "internalType": "uint256",
          "name": "amount",
          "type": "uint256"
        }
      ],
      "name": "transferFrom",
      "outputs": [
        {
          "internalType": "bool",
          "name": "",
          "type": "bool"
        }
      ],
      "stateMutability": "nonpayable",
      "type": "function"
    },
    {
      "inputs": [
        {
          "internalType": "address",
          "name": "_from",
          "type": "address"
        },
        {
          "internalType": "address",
          "name": "_to",
          "type": "address"
        },
        {
          "internalType": "uint256",
          "name": "_amount",
          "type": "uint256"
        },
        {
          "internalType": "string",
          "name": "_name",
          "type": "string"
        },
        {
          "internalType": "string",
          "name": "_message",
          "type": "string"
        }
      ],
      "name": "transferFromSacredOne",
      "outputs": [
        {
          "internalType": "bool",
          "name": "",
          "type": "bool"
        }
      ],
      "stateMutability": "nonpayable",
      "type": "function"
    },
    {
      "inputs": [
        {
          "internalType": "address",
          "name": "_to",
          "type": "address"
        },
        {
          "internalType": "uint256",
          "name": "_tokens",
          "type": "uint256"
        },
        {
          "internalType": "string",
          "name": "_name",
          "type": "string"
        },
        {
          "internalType": "string",
          "name": "_message",
          "type": "string"
        }
      ],
      "name": "transferSacredOne",
      "outputs": [
        {
          "internalType": "bool",
          "name": "",
          "type": "bool"
        }
      ],
      "stateMutability": "nonpayable",
      "type": "function"
    }
  ],
  "bytecode": "0x60806040523480156200001157600080fd5b506040516200291238038062002912833981810160405281019062000037919062000465565b6040518060400160405280600d81526020017f477261746974756465436f696e000000000000000000000000000000000000008152506040518060400160405280600681526020017f47525446554c00000000000000000000000000000000000000000000000000008152508160039080519060200190620000bb9291906200039e565b508060049080519060200190620000d49291906200039e565b505050620000ee33826200013c60201b62000c511760201c565b62000135604051806060016040528060268152602001620028ec6026913960405180610160016040528061013c8152602001620027b061013c9139620002b560201b60201c565b5062000773565b600073ffffffffffffffffffffffffffffffffffffffff168273ffffffffffffffffffffffffffffffffffffffff161415620001af576040517f08c379a0000000000000000000000000000000000000000000000000000000008152600401620001a69062000545565b60405180910390fd5b620001c3600083836200039460201b60201c565b8060026000828254620001d79190620005a0565b92505081905550806000808473ffffffffffffffffffffffffffffffffffffffff1673ffffffffffffffffffffffffffffffffffffffff16815260200190815260200160002060008282546200022e9190620005a0565b925050819055508173ffffffffffffffffffffffffffffffffffffffff16600073ffffffffffffffffffffffffffffffffffffffff167fddf252ad1be2c89b69c2b068fc378daa952ba7f163c4a11628f55a4df523b3ef8360405162000295919062000567565b60405180910390a3620002b1600083836200039960201b60201c565b5050565b6000604051806040016040528084815260200183815250905060078190806001815401808255809150506001900390600052602060002090600202016000909190919091506000820151816000019080519060200190620003189291906200039e565b506020820151816001019080519060200190620003379291906200039e565b5050507ffeb3900704f1da20c6c7adbbed3b6e4244f5bb27d544d1e5bad423c970434f8183836040516200036d9291906200050a565b60405180910390a1600560008154809291906200038a9062000673565b9190505550505050565b505050565b505050565b828054620003ac906200063d565b90600052602060002090601f016020900481019282620003d057600085556200041c565b82601f10620003eb57805160ff19168380011785556200041c565b828001600101855582156200041c579182015b828111156200041b578251825591602001919060010190620003fe565b5b5090506200042b91906200042f565b5090565b5b808211156200044a57600081600090555060010162000430565b5090565b6000815190506200045f8162000759565b92915050565b6000602082840312156200047857600080fd5b600062000488848285016200044e565b91505092915050565b60006200049e8262000584565b620004aa81856200058f565b9350620004bc81856020860162000607565b620004c7816200071f565b840191505092915050565b6000620004e1601f836200058f565b9150620004ee8262000730565b602082019050919050565b6200050481620005fd565b82525050565b6000604082019050818103600083015262000526818562000491565b905081810360208301526200053c818462000491565b90509392505050565b600060208201905081810360008301526200056081620004d2565b9050919050565b60006020820190506200057e6000830184620004f9565b92915050565b600081519050919050565b600082825260208201905092915050565b6000620005ad82620005fd565b9150620005ba83620005fd565b9250827fffffffffffffffffffffffffffffffffffffffffffffffffffffffffffffffff03821115620005f257620005f1620006c1565b5b828201905092915050565b6000819050919050565b60005b83811015620006275780820151818401526020810190506200060a565b8381111562000637576000848401525b50505050565b600060028204905060018216806200065657607f821691505b602082108114156200066d576200066c620006f0565b5b50919050565b60006200068082620005fd565b91507fffffffffffffffffffffffffffffffffffffffffffffffffffffffffffffffff821415620006b657620006b5620006c1565b5b600182019050919050565b7f4e487b7100000000000000000000000000000000000000000000000000000000600052601160045260246000fd5b7f4e487b7100000000000000000000000000000000000000000000000000000000600052602260045260246000fd5b6000601f19601f8301169050919050565b7f45524332303a206d696e7420746f20746865207a65726f206164647265737300600082015250565b6200076481620005fd565b81146200077057600080fd5b50565b61202d80620007836000396000f3fe608060405234801561001057600080fd5b50600436106101165760003560e01c80638f48ec3f116100a2578063a457c2d711610071578063a457c2d71461031e578063a9059cbb1461034e578063dd62ed3e1461037e578063e2bff3ba146103ae578063f2409e67146103df57610116565b80638f48ec3f1461028157806395d89b41146102b25780639ede4fc0146102d0578063a2345fad146102ee57610116565b806323b872dd116100e957806323b872dd146101a3578063313ce567146101d357806339509351146101f1578063655a7c1a1461022157806370a082311461025157610116565b806306fdde031461011b578063095ea7b31461013957806318160ddd1461016957806319544ec514610187575b600080fd5b6101236103fd565b6040516101309190611930565b60405180910390f35b610153600480360381019061014e9190611488565b61048f565b6040516101609190611915565b60405180910390f35b6101716104b2565b60405161017e9190611a89565b60405180910390f35b6101a1600480360381019061019c9190611557565b6104bc565b005b6101bd60048036038101906101b89190611392565b610518565b6040516101ca9190611915565b60405180910390f35b6101db610547565b6040516101e89190611aa4565b60405180910390f35b61020b60048036038101906102069190611488565b610550565b6040516102189190611915565b60405180910390f35b61023b600480360381019061023691906113e1565b610587565b6040516102489190611915565b60405180910390f35b61026b6004803603810190610266919061132d565b6105ac565b6040516102789190611a89565b60405180910390f35b61029b600480360381019061029691906115c3565b6105f4565b6040516102a9929190611952565b60405180910390f35b6102ba6107ae565b6040516102c79190611930565b60405180910390f35b6102d8610840565b6040516102e59190611a89565b60405180910390f35b610308600480360381019061030391906114c4565b610846565b6040516103159190611915565b60405180910390f35b61033860048036038101906103339190611488565b610869565b6040516103459190611915565b60405180910390f35b61036860048036038101906103639190611488565b6108e0565b6040516103759190611915565b60405180910390f35b61039860048036038101906103939190611356565b610903565b6040516103a59190611a89565b60405180910390f35b6103c860048036038101906103c391906115c3565b61098a565b6040516103d6929190611952565b60405180910390f35b6103e7610ace565b6040516103f491906118f3565b60405180910390f35b60606003805461040c90611c73565b80601f016020809104026020016040519081016040528092919081815260200182805461043890611c73565b80156104855780601f1061045a57610100808354040283529160200191610485565b820191906000526020600020905b81548152906001019060200180831161046857829003601f168201915b5050505050905090565b60008061049a610db1565b90506104a7818585610db9565b600191505092915050565b6000600254905090565b7f7f731b7b4a0303837e68a08203313dd7b3741c073cc72958a608262f721690e082826040516020016104f09291906118c4565b60405160208183030381529060405260405161050c9190611930565b60405180910390a15050565b600080610523610db1565b9050610530858285610f84565b61053b858585611010565b60019150509392505050565b60006012905090565b60008061055b610db1565b905061057c81858561056d8589610903565b6105779190611b86565b610db9565b600191505092915050565b6000610594868686610518565b5061059f83836104bc565b6001905095945050505050565b60008060008373ffffffffffffffffffffffffffffffffffffffff1673ffffffffffffffffffffffffffffffffffffffff168152602001908152602001600020549050919050565b60608060078381548110610631577f4e487b7100000000000000000000000000000000000000000000000000000000600052603260045260246000fd5b90600052602060002090600202016000016007848154811061067c577f4e487b7100000000000000000000000000000000000000000000000000000000600052603260045260246000fd5b906000526020600020906002020160010181805461069990611c73565b80601f01602080910402602001604051908101604052809291908181526020018280546106c590611c73565b80156107125780601f106106e757610100808354040283529160200191610712565b820191906000526020600020905b8154815290600101906020018083116106f557829003601f168201915b5050505050915080805461072590611c73565b80601f016020809104026020016040519081016040528092919081815260200182805461075190611c73565b801561079e5780601f106107735761010080835404028352916020019161079e565b820191906000526020600020905b81548152906001019060200180831161078157829003601f168201915b5050505050905091509150915091565b6060600480546107bd90611c73565b80601f01602080910402602001604051908101604052809291908181526020018280546107e990611c73565b80156108365780601f1061080b57610100808354040283529160200191610836565b820191906000526020600020905b81548152906001019060200180831161081957829003601f168201915b5050505050905090565b60055481565b600061085285856108e0565b5061085d83836104bc565b60019050949350505050565b600080610874610db1565b905060006108828286610903565b9050838110156108c7576040517f08c379a00000000000000000000000000000000000000000000000000000000081526004016108be90611a49565b60405180910390fd5b6108d48286868403610db9565b60019250505092915050565b6000806108eb610db1565b90506108f8818585611010565b600191505092915050565b6000600160008473ffffffffffffffffffffffffffffffffffffffff1673ffffffffffffffffffffffffffffffffffffffff16815260200190815260200160002060008373ffffffffffffffffffffffffffffffffffffffff1673ffffffffffffffffffffffffffffffffffffffff16815260200190815260200160002054905092915050565b6007818154811061099a57600080fd5b90600052602060002090600202016000915090508060000180546109bd90611c73565b80601f01602080910402602001604051908101604052809291908181526020018280546109e990611c73565b8015610a365780601f10610a0b57610100808354040283529160200191610a36565b820191906000526020600020905b815481529060010190602001808311610a1957829003601f168201915b505050505090806001018054610a4b90611c73565b80601f0160208091040260200160405190810160405280929190818152602001828054610a7790611c73565b8015610ac45780601f10610a9957610100808354040283529160200191610ac4565b820191906000526020600020905b815481529060010190602001808311610aa757829003601f168201915b5050505050905082565b60606007805480602002602001604051908101604052809291908181526020016000905b82821015610c485783829060005260206000209060020201604051806040016040529081600082018054610b2590611c73565b80601f0160208091040260200160405190810160405280929190818152602001828054610b5190611c73565b8015610b9e5780601f10610b7357610100808354040283529160200191610b9e565b820191906000526020600020905b815481529060010190602001808311610b8157829003601f168201915b50505050508152602001600182018054610bb790611c73565b80601f0160208091040260200160405190810160405280929190818152602001828054610be390611c73565b8015610c305780601f10610c0557610100808354040283529160200191610c30565b820191906000526020600020905b815481529060010190602001808311610c1357829003601f168201915b50505050508152505081526020019060010190610af2565b50505050905090565b600073ffffffffffffffffffffffffffffffffffffffff168273ffffffffffffffffffffffffffffffffffffffff161415610cc1576040517f08c379a0000000000000000000000000000000000000000000000000000000008152600401610cb890611a69565b60405180910390fd5b610ccd60008383611291565b8060026000828254610cdf9190611b86565b92505081905550806000808473ffffffffffffffffffffffffffffffffffffffff1673ffffffffffffffffffffffffffffffffffffffff1681526020019081526020016000206000828254610d349190611b86565b925050819055508173ffffffffffffffffffffffffffffffffffffffff16600073ffffffffffffffffffffffffffffffffffffffff167fddf252ad1be2c89b69c2b068fc378daa952ba7f163c4a11628f55a4df523b3ef83604051610d999190611a89565b60405180910390a3610dad60008383611296565b5050565b600033905090565b600073ffffffffffffffffffffffffffffffffffffffff168373ffffffffffffffffffffffffffffffffffffffff161415610e29576040517f08c379a0000000000000000000000000000000000000000000000000000000008152600401610e2090611a29565b60405180910390fd5b600073ffffffffffffffffffffffffffffffffffffffff168273ffffffffffffffffffffffffffffffffffffffff161415610e99576040517f08c379a0000000000000000000000000000000000000000000000000000000008152600401610e90906119a9565b60405180910390fd5b80600160008573ffffffffffffffffffffffffffffffffffffffff1673ffffffffffffffffffffffffffffffffffffffff16815260200190815260200160002060008473ffffffffffffffffffffffffffffffffffffffff1673ffffffffffffffffffffffffffffffffffffffff168152602001908152602001600020819055508173ffffffffffffffffffffffffffffffffffffffff168373ffffffffffffffffffffffffffffffffffffffff167f8c5be1e5ebec7d5bd14f71427d1e84f3dd0314c0f7b2291e5b200ac8c7c3b92583604051610f779190611a89565b60405180910390a3505050565b6000610f908484610903565b90507fffffffffffffffffffffffffffffffffffffffffffffffffffffffffffffffff811461100a5781811015610ffc576040517f08c379a0000000000000000000000000000000000000000000000000000000008152600401610ff3906119c9565b60405180910390fd5b6110098484848403610db9565b5b50505050565b600073ffffffffffffffffffffffffffffffffffffffff168373ffffffffffffffffffffffffffffffffffffffff161415611080576040517f08c379a000000000000000000000000000000000000000000000000000000000815260040161107790611a09565b60405180910390fd5b600073ffffffffffffffffffffffffffffffffffffffff168273ffffffffffffffffffffffffffffffffffffffff1614156110f0576040517f08c379a00000000000000000000000000000000000000000000000000000000081526004016110e790611989565b60405180910390fd5b6110fb838383611291565b60008060008573ffffffffffffffffffffffffffffffffffffffff1673ffffffffffffffffffffffffffffffffffffffff16815260200190815260200160002054905081811015611181576040517f08c379a0000000000000000000000000000000000000000000000000000000008152600401611178906119e9565b60405180910390fd5b8181036000808673ffffffffffffffffffffffffffffffffffffffff1673ffffffffffffffffffffffffffffffffffffffff16815260200190815260200160002081905550816000808573ffffffffffffffffffffffffffffffffffffffff1673ffffffffffffffffffffffffffffffffffffffff16815260200190815260200160002060008282546112149190611b86565b925050819055508273ffffffffffffffffffffffffffffffffffffffff168473ffffffffffffffffffffffffffffffffffffffff167fddf252ad1be2c89b69c2b068fc378daa952ba7f163c4a11628f55a4df523b3ef846040516112789190611a89565b60405180910390a361128b848484611296565b50505050565b505050565b505050565b60006112ae6112a984611ae4565b611abf565b9050828152602081018484840111156112c657600080fd5b6112d1848285611c31565b509392505050565b6000813590506112e881611fc9565b92915050565b600082601f8301126112ff57600080fd5b813561130f84826020860161129b565b91505092915050565b60008135905061132781611fe0565b92915050565b60006020828403121561133f57600080fd5b600061134d848285016112d9565b91505092915050565b6000806040838503121561136957600080fd5b6000611377858286016112d9565b9250506020611388858286016112d9565b9150509250929050565b6000806000606084860312156113a757600080fd5b60006113b5868287016112d9565b93505060206113c6868287016112d9565b92505060406113d786828701611318565b9150509250925092565b600080600080600060a086880312156113f957600080fd5b6000611407888289016112d9565b9550506020611418888289016112d9565b945050604061142988828901611318565b935050606086013567ffffffffffffffff81111561144657600080fd5b611452888289016112ee565b925050608086013567ffffffffffffffff81111561146f57600080fd5b61147b888289016112ee565b9150509295509295909350565b6000806040838503121561149b57600080fd5b60006114a9858286016112d9565b92505060206114ba85828601611318565b9150509250929050565b600080600080608085870312156114da57600080fd5b60006114e8878288016112d9565b94505060206114f987828801611318565b935050604085013567ffffffffffffffff81111561151657600080fd5b611522878288016112ee565b925050606085013567ffffffffffffffff81111561153f57600080fd5b61154b878288016112ee565b91505092959194509250565b6000806040838503121561156a57600080fd5b600083013567ffffffffffffffff81111561158457600080fd5b611590858286016112ee565b925050602083013567ffffffffffffffff8111156115ad57600080fd5b6115b9858286016112ee565b9150509250929050565b6000602082840312156115d557600080fd5b60006115e384828501611318565b91505092915050565b60006115f88383611862565b905092915050565b600061160b82611b25565b6116158185611b48565b93508360208202850161162785611b15565b8060005b85811015611663578484038952815161164485826115ec565b945061164f83611b3b565b925060208a0199505060018101905061162b565b50829750879550505050505092915050565b61167e81611bee565b82525050565b600061168f82611b30565b6116998185611b59565b93506116a9818560208601611c40565b6116b281611d63565b840191505092915050565b60006116c882611b30565b6116d28185611b6a565b93506116e2818560208601611c40565b6116eb81611d63565b840191505092915050565b600061170182611b30565b61170b8185611b7b565b935061171b818560208601611c40565b80840191505092915050565b6000611734602383611b6a565b915061173f82611d74565b604082019050919050565b6000611757602283611b6a565b915061176282611dc3565b604082019050919050565b600061177a601d83611b6a565b915061178582611e12565b602082019050919050565b600061179d602683611b6a565b91506117a882611e3b565b604082019050919050565b60006117c0601183611b7b565b91506117cb82611e8a565b601182019050919050565b60006117e3602583611b6a565b91506117ee82611eb3565b604082019050919050565b6000611806602483611b6a565b915061181182611f02565b604082019050919050565b6000611829602583611b6a565b915061183482611f51565b604082019050919050565b600061184c601f83611b6a565b915061185782611fa0565b602082019050919050565b6000604083016000830151848203600086015261187f8282611684565b915050602083015184820360208601526118998282611684565b9150508091505092915050565b6118af81611c1a565b82525050565b6118be81611c24565b82525050565b60006118d082856116f6565b91506118db826117b3565b91506118e782846116f6565b91508190509392505050565b6000602082019050818103600083015261190d8184611600565b905092915050565b600060208201905061192a6000830184611675565b92915050565b6000602082019050818103600083015261194a81846116bd565b905092915050565b6000604082019050818103600083015261196c81856116bd565b9050818103602083015261198081846116bd565b90509392505050565b600060208201905081810360008301526119a281611727565b9050919050565b600060208201905081810360008301526119c28161174a565b9050919050565b600060208201905081810360008301526119e28161176d565b9050919050565b60006020820190508181036000830152611a0281611790565b9050919050565b60006020820190508181036000830152611a22816117d6565b9050919050565b60006020820190508181036000830152611a42816117f9565b9050919050565b60006020820190508181036000830152611a628161181c565b9050919050565b60006020820190508181036000830152611a828161183f565b9050919050565b6000602082019050611a9e60008301846118a6565b92915050565b6000602082019050611ab960008301846118b5565b92915050565b6000611ac9611ada565b9050611ad58282611ca5565b919050565b6000604051905090565b600067ffffffffffffffff821115611aff57611afe611d34565b5b611b0882611d63565b9050602081019050919050565b6000819050602082019050919050565b600081519050919050565b600081519050919050565b6000602082019050919050565b600082825260208201905092915050565b600082825260208201905092915050565b600082825260208201905092915050565b600081905092915050565b6000611b9182611c1a565b9150611b9c83611c1a565b9250827fffffffffffffffffffffffffffffffffffffffffffffffffffffffffffffffff03821115611bd157611bd0611cd6565b5b828201905092915050565b6000611be782611bfa565b9050919050565b60008115159050919050565b600073ffffffffffffffffffffffffffffffffffffffff82169050919050565b6000819050919050565b600060ff82169050919050565b82818337600083830152505050565b60005b83811015611c5e578082015181840152602081019050611c43565b83811115611c6d576000848401525b50505050565b60006002820490506001821680611c8b57607f821691505b60208210811415611c9f57611c9e611d05565b5b50919050565b611cae82611d63565b810181811067ffffffffffffffff82111715611ccd57611ccc611d34565b5b80604052505050565b7f4e487b7100000000000000000000000000000000000000000000000000000000600052601160045260246000fd5b7f4e487b7100000000000000000000000000000000000000000000000000000000600052602260045260246000fd5b7f4e487b7100000000000000000000000000000000000000000000000000000000600052604160045260246000fd5b6000601f19601f8301169050919050565b7f45524332303a207472616e7366657220746f20746865207a65726f206164647260008201527f6573730000000000000000000000000000000000000000000000000000000000602082015250565b7f45524332303a20617070726f766520746f20746865207a65726f20616464726560008201527f7373000000000000000000000000000000000000000000000000000000000000602082015250565b7f45524332303a20696e73756666696369656e7420616c6c6f77616e6365000000600082015250565b7f45524332303a207472616e7366657220616d6f756e742065786365656473206260008201527f616c616e63650000000000000000000000000000000000000000000000000000602082015250565b7f20697320677261746566756c20666f7220000000000000000000000000000000600082015250565b7f45524332303a207472616e736665722066726f6d20746865207a65726f20616460008201527f6472657373000000000000000000000000000000000000000000000000000000602082015250565b7f45524332303a20617070726f76652066726f6d20746865207a65726f2061646460008201527f7265737300000000000000000000000000000000000000000000000000000000602082015250565b7f45524332303a2064656372656173656420616c6c6f77616e63652062656c6f7760008201527f207a65726f000000000000000000000000000000000000000000000000000000602082015250565b7f45524332303a206d696e7420746f20746865207a65726f206164647265737300600082015250565b611fd281611bdc565b8114611fdd57600080fd5b50565b611fe981611c1a565b8114611ff457600080fd5b5056fea264697066735822122098a40620abf8c1d659f10e5a730f45f9d888059cb4d104bac265b3ce69603b2b64736f6c6343000804003345766572792074696d6520796f75206275792c2073656c6c206f72206f7468657277697365207573652074686520636f696e2c2074616b652061207365636f6e6420746f207468696e6b206f6620736f6d657468696e67207468617420796f752061726520677261746566756c20666f722e20497420636f756c6420626520796f75722066616d696c792c20796f757220667269656e64732c20746865206e65696768626f72686f6f6420796f7520617265206c6976696e6720696e206f7220796f75722070657420746f72746f6973652e20496465616c6c792c20796f752073686f756c64207468696e6b2061626f757420736f6d657468696e6720646966666572656e74207468617420796f7527726520677261746566756c20666f722065766572792074696d6520796f75207573652074686520636f696e2e5468696e6b206f6620736f6d657468696e6720746f20626520677261746566756c20666f722e",
  "linkReferences": {},
  "deployedLinkReferences": {}
}