{
  "_format": "hh-sol-artifact-1",
  "contractName": "SacredCoin",
  "sourceName": "src/contracts/SacredCoin.sol",
  "abi": [
    {
      "anonymous": false,
      "inputs": [
        {
          "indexed": false,
          "internalType": "string",
          "name": "guidelineSummary",
          "type": "string"
        },
        {
          "indexed": false,
          "internalType": "string",
          "name": "guideline",
          "type": "string"
        }
      ],
      "name": "GuidelineCreated",
      "type": "event"
    },
    {
      "inputs": [
        {
          "internalType": "uint256",
          "name": "",
          "type": "uint256"
        }
      ],
      "name": "guidelines",
      "outputs": [
        {
          "internalType": "string",
          "name": "summary",
          "type": "string"
        },
        {
          "internalType": "string",
          "name": "guideline",
          "type": "string"
        }
      ],
      "stateMutability": "view",
      "type": "function"
    },
    {
      "inputs": [],
      "name": "numberOfGuidelines",
      "outputs": [
        {
          "internalType": "uint256",
          "name": "",
          "type": "uint256"
        }
      ],
      "stateMutability": "view",
      "type": "function"
    },
    {
      "inputs": [],
      "name": "returnAllGuidelines",
      "outputs": [
        {
          "components": [
            {
              "internalType": "string",
              "name": "summary",
              "type": "string"
            },
            {
              "internalType": "string",
              "name": "guideline",
              "type": "string"
            }
          ],
          "internalType": "struct SacredCoin.Guideline[]",
          "name": "",
          "type": "tuple[]"
        }
      ],
      "stateMutability": "view",
      "type": "function"
    },
    {
      "inputs": [
        {
          "internalType": "uint256",
          "name": "_index",
          "type": "uint256"
        }
      ],
      "name": "returnSingleGuideline",
      "outputs": [
        {
          "internalType": "string",
          "name": "",
          "type": "string"
        },
        {
          "internalType": "string",
          "name": "",
          "type": "string"
        }
      ],
      "stateMutability": "view",
      "type": "function"
    }
  ],
  "bytecode": "0x608060405234801561001057600080fd5b506108d8806100206000396000f3fe608060405234801561001057600080fd5b506004361061004c5760003560e01c80638f48ec3f146100515780639ede4fc014610082578063e2bff3ba146100a0578063f2409e67146100d1575b600080fd5b61006b6004803603810190610066919061058b565b6100ef565b604051610079929190610724565b60405180910390f35b61008a6102a9565b604051610097919061075b565b60405180910390f35b6100ba60048036038101906100b5919061058b565b6102af565b6040516100c8929190610724565b60405180910390f35b6100d96103f3565b6040516100e69190610702565b60405180910390f35b6060806002838154811061012c577f4e487b7100000000000000000000000000000000000000000000000000000000600052603260045260246000fd5b906000526020600020906002020160000160028481548110610177577f4e487b7100000000000000000000000000000000000000000000000000000000600052603260045260246000fd5b906000526020600020906002020160010181805461019490610819565b80601f01602080910402602001604051908101604052809291908181526020018280546101c090610819565b801561020d5780601f106101e25761010080835404028352916020019161020d565b820191906000526020600020905b8154815290600101906020018083116101f057829003601f168201915b5050505050915080805461022090610819565b80601f016020809104026020016040519081016040528092919081815260200182805461024c90610819565b80156102995780601f1061026e57610100808354040283529160200191610299565b820191906000526020600020905b81548152906001019060200180831161027c57829003601f168201915b5050505050905091509150915091565b60005481565b600281815481106102bf57600080fd5b90600052602060002090600202016000915090508060000180546102e290610819565b80601f016020809104026020016040519081016040528092919081815260200182805461030e90610819565b801561035b5780601f106103305761010080835404028352916020019161035b565b820191906000526020600020905b81548152906001019060200180831161033e57829003601f168201915b50505050509080600101805461037090610819565b80601f016020809104026020016040519081016040528092919081815260200182805461039c90610819565b80156103e95780601f106103be576101008083540402835291602001916103e9565b820191906000526020600020905b8154815290600101906020018083116103cc57829003601f168201915b5050505050905082565b60606002805480602002602001604051908101604052809291908181526020016000905b8282101561056d578382906000526020600020906002020160405180604001604052908160008201805461044a90610819565b80601f016020809104026020016040519081016040528092919081815260200182805461047690610819565b80156104c35780601f10610498576101008083540402835291602001916104c3565b820191906000526020600020905b8154815290600101906020018083116104a657829003601f168201915b505050505081526020016001820180546104dc90610819565b80601f016020809104026020016040519081016040528092919081815260200182805461050890610819565b80156105555780601f1061052a57610100808354040283529160200191610555565b820191906000526020600020905b81548152906001019060200180831161053857829003601f168201915b50505050508152505081526020019060010190610417565b50505050905090565b6000813590506105858161088b565b92915050565b60006020828403121561059d57600080fd5b60006105ab84828501610576565b91505092915050565b60006105c083836106af565b905092915050565b60006105d382610786565b6105dd81856107a9565b9350836020820285016105ef85610776565b8060005b8581101561062b578484038952815161060c85826105b4565b94506106178361079c565b925060208a019950506001810190506105f3565b50829750879550505050505092915050565b600061064882610791565b61065281856107ba565b93506106628185602086016107e6565b61066b8161087a565b840191505092915050565b600061068182610791565b61068b81856107cb565b935061069b8185602086016107e6565b6106a48161087a565b840191505092915050565b600060408301600083015184820360008601526106cc828261063d565b915050602083015184820360208601526106e6828261063d565b9150508091505092915050565b6106fc816107dc565b82525050565b6000602082019050818103600083015261071c81846105c8565b905092915050565b6000604082019050818103600083015261073e8185610676565b905081810360208301526107528184610676565b90509392505050565b600060208201905061077060008301846106f3565b92915050565b6000819050602082019050919050565b600081519050919050565b600081519050919050565b6000602082019050919050565b600082825260208201905092915050565b600082825260208201905092915050565b600082825260208201905092915050565b6000819050919050565b60005b838110156108045780820151818401526020810190506107e9565b83811115610813576000848401525b50505050565b6000600282049050600182168061083157607f821691505b602082108114156108455761084461084b565b5b50919050565b7f4e487b7100000000000000000000000000000000000000000000000000000000600052602260045260246000fd5b6000601f19601f8301169050919050565b610894816107dc565b811461089f57600080fd5b5056fea2646970667358221220afd83a78e3168682e16b7020ffabb9efc59d425bb40545ddcbcf8f631d3d97a264736f6c63430008040033",
  "linkReferences": {},
  "deployedLinkReferences": {}
}