{
  "_format": "hh-sol-artifact-1",
  "contractName": "GeneralPeaceToken",
  "sourceName": "src/contracts/GeneralPeaceToken.sol",
  "abi": [
    {
      "inputs": [
        {
          "internalType": "uint256",
          "name": "initialSupply",
          "type": "uint256"
        }
      ],
      "stateMutability": "nonpayable",
      "type": "constructor"
    },
    {
      "anonymous": false,
      "inputs": [
        {
          "indexed": true,
          "internalType": "address",
          "name": "owner",
          "type": "address"
        },
        {
          "indexed": true,
          "internalType": "address",
          "name": "spender",
          "type": "address"
        },
        {
          "indexed": false,
          "internalType": "uint256",
          "name": "value",
          "type": "uint256"
        }
      ],
      "name": "Approval",
      "type": "event"
    },
    {
      "anonymous": false,
      "inputs": [
        {
          "indexed": false,
          "internalType": "string",
          "name": "guidelineSummary",
          "type": "string"
        },
        {
          "indexed": false,
          "internalType": "string",
          "name": "guideline",
          "type": "string"
        }
      ],
      "name": "GuidelineCreated",
      "type": "event"
    },
    {
      "anonymous": false,
      "inputs": [
        {
          "indexed": false,
          "internalType": "string",
          "name": "SacredMessage",
          "type": "string"
        }
      ],
      "name": "SacredEvent",
      "type": "event"
    },
    {
      "anonymous": false,
      "inputs": [
        {
          "indexed": true,
          "internalType": "address",
          "name": "from",
          "type": "address"
        },
        {
          "indexed": true,
          "internalType": "address",
          "name": "to",
          "type": "address"
        },
        {
          "indexed": false,
          "internalType": "uint256",
          "name": "value",
          "type": "uint256"
        }
      ],
      "name": "Transfer",
      "type": "event"
    },
    {
      "inputs": [
        {
          "internalType": "address",
          "name": "owner",
          "type": "address"
        },
        {
          "internalType": "address",
          "name": "spender",
          "type": "address"
        }
      ],
      "name": "allowance",
      "outputs": [
        {
          "internalType": "uint256",
          "name": "",
          "type": "uint256"
        }
      ],
      "stateMutability": "view",
      "type": "function"
    },
    {
      "inputs": [
        {
          "internalType": "address",
          "name": "spender",
          "type": "address"
        },
        {
          "internalType": "uint256",
          "name": "amount",
          "type": "uint256"
        }
      ],
      "name": "approve",
      "outputs": [
        {
          "internalType": "bool",
          "name": "",
          "type": "bool"
        }
      ],
      "stateMutability": "nonpayable",
      "type": "function"
    },
    {
      "inputs": [
        {
          "internalType": "address",
          "name": "account",
          "type": "address"
        }
      ],
      "name": "balanceOf",
      "outputs": [
        {
          "internalType": "uint256",
          "name": "",
          "type": "uint256"
        }
      ],
      "stateMutability": "view",
      "type": "function"
    },
    {
      "inputs": [],
      "name": "decimals",
      "outputs": [
        {
          "internalType": "uint8",
          "name": "",
          "type": "uint8"
        }
      ],
      "stateMutability": "view",
      "type": "function"
    },
    {
      "inputs": [
        {
          "internalType": "address",
          "name": "spender",
          "type": "address"
        },
        {
          "internalType": "uint256",
          "name": "subtractedValue",
          "type": "uint256"
        }
      ],
      "name": "decreaseAllowance",
      "outputs": [
        {
          "internalType": "bool",
          "name": "",
          "type": "bool"
        }
      ],
      "stateMutability": "nonpayable",
      "type": "function"
    },
    {
      "inputs": [
        {
          "internalType": "uint256",
          "name": "",
          "type": "uint256"
        }
      ],
      "name": "guidelines",
      "outputs": [
        {
          "internalType": "string",
          "name": "summary",
          "type": "string"
        },
        {
          "internalType": "string",
          "name": "guideline",
          "type": "string"
        }
      ],
      "stateMutability": "view",
      "type": "function"
    },
    {
      "inputs": [
        {
          "internalType": "address",
          "name": "spender",
          "type": "address"
        },
        {
          "internalType": "uint256",
          "name": "addedValue",
          "type": "uint256"
        }
      ],
      "name": "increaseAllowance",
      "outputs": [
        {
          "internalType": "bool",
          "name": "",
          "type": "bool"
        }
      ],
      "stateMutability": "nonpayable",
      "type": "function"
    },
    {
      "inputs": [],
      "name": "name",
      "outputs": [
        {
          "internalType": "string",
          "name": "",
          "type": "string"
        }
      ],
      "stateMutability": "view",
      "type": "function"
    },
    {
      "inputs": [],
      "name": "numberOfGuidelines",
      "outputs": [
        {
          "internalType": "uint256",
          "name": "",
          "type": "uint256"
        }
      ],
      "stateMutability": "view",
      "type": "function"
    },
    {
      "inputs": [],
      "name": "returnAllGuidelines",
      "outputs": [
        {
          "components": [
            {
              "internalType": "string",
              "name": "summary",
              "type": "string"
            },
            {
              "internalType": "string",
              "name": "guideline",
              "type": "string"
            }
          ],
          "internalType": "struct SacredCoin.Guideline[]",
          "name": "",
          "type": "tuple[]"
        }
      ],
      "stateMutability": "view",
      "type": "function"
    },
    {
      "inputs": [
        {
          "internalType": "uint256",
          "name": "_index",
          "type": "uint256"
        }
      ],
      "name": "returnSingleGuideline",
      "outputs": [
        {
          "internalType": "string",
          "name": "",
          "type": "string"
        },
        {
          "internalType": "string",
          "name": "",
          "type": "string"
        }
      ],
      "stateMutability": "view",
      "type": "function"
    },
    {
      "inputs": [],
      "name": "symbol",
      "outputs": [
        {
          "internalType": "string",
          "name": "",
          "type": "string"
        }
      ],
      "stateMutability": "view",
      "type": "function"
    },
    {
      "inputs": [],
      "name": "totalSupply",
      "outputs": [
        {
          "internalType": "uint256",
          "name": "",
          "type": "uint256"
        }
      ],
      "stateMutability": "view",
      "type": "function"
    },
    {
      "inputs": [
        {
          "internalType": "address",
          "name": "to",
          "type": "address"
        },
        {
          "internalType": "uint256",
          "name": "amount",
          "type": "uint256"
        }
      ],
      "name": "transfer",
      "outputs": [
        {
          "internalType": "bool",
          "name": "",
          "type": "bool"
        }
      ],
      "stateMutability": "nonpayable",
      "type": "function"
    },
    {
      "inputs": [
        {
          "internalType": "address",
          "name": "from",
          "type": "address"
        },
        {
          "internalType": "address",
          "name": "to",
          "type": "address"
        },
        {
          "internalType": "uint256",
          "name": "amount",
          "type": "uint256"
        }
      ],
      "name": "transferFrom",
      "outputs": [
        {
          "internalType": "bool",
          "name": "",
          "type": "bool"
        }
      ],
      "stateMutability": "nonpayable",
      "type": "function"
    },
    {
      "inputs": [
        {
          "internalType": "address",
          "name": "_from",
          "type": "address"
        },
        {
          "internalType": "address",
          "name": "_to",
          "type": "address"
        },
        {
          "internalType": "uint256",
          "name": "_amount",
          "type": "uint256"
        },
        {
          "internalType": "string",
          "name": "_name",
          "type": "string"
        },
        {
          "internalType": "string",
          "name": "_message",
          "type": "string"
        }
      ],
      "name": "transferFromSacredOne",
      "outputs": [
        {
          "internalType": "bool",
          "name": "",
          "type": "bool"
        }
      ],
      "stateMutability": "nonpayable",
      "type": "function"
    },
    {
      "inputs": [
        {
          "internalType": "address",
          "name": "_to",
          "type": "address"
        },
        {
          "internalType": "uint256",
          "name": "_tokens",
          "type": "uint256"
        },
        {
          "internalType": "string",
          "name": "_name",
          "type": "string"
        },
        {
          "internalType": "string",
          "name": "_message",
          "type": "string"
        }
      ],
      "name": "transferSacredOne",
      "outputs": [
        {
          "internalType": "bool",
          "name": "",
          "type": "bool"
        }
      ],
      "stateMutability": "nonpayable",
      "type": "function"
    }
  ],
  "bytecode": "0x60806040523480156200001157600080fd5b50604051620027fb380380620027fb83398181016040528101906200003791906200047f565b6040518060400160405280601381526020017f47656e6572616c20506561636520546f6b656e000000000000000000000000008152506040518060400160405280600681526020017f47455045544f00000000000000000000000000000000000000000000000000008152508160039080519060200190620000bb929190620003b8565b508060049080519060200190620000d4929190620003b8565b505050620000ee33826200015660201b62000bce1760201c565b6200014f6040518060400160405280601881526020017f53686172652061206d657373616765206f66207065616365000000000000000081525060405180610100016040528060c481526020016200273760c49139620002cf60201b60201c565b506200078d565b600073ffffffffffffffffffffffffffffffffffffffff168273ffffffffffffffffffffffffffffffffffffffff161415620001c9576040517f08c379a0000000000000000000000000000000000000000000000000000000008152600401620001c0906200055f565b60405180910390fd5b620001dd60008383620003ae60201b60201c565b8060026000828254620001f19190620005ba565b92505081905550806000808473ffffffffffffffffffffffffffffffffffffffff1673ffffffffffffffffffffffffffffffffffffffff1681526020019081526020016000206000828254620002489190620005ba565b925050819055508173ffffffffffffffffffffffffffffffffffffffff16600073ffffffffffffffffffffffffffffffffffffffff167fddf252ad1be2c89b69c2b068fc378daa952ba7f163c4a11628f55a4df523b3ef83604051620002af919062000581565b60405180910390a3620002cb60008383620003b360201b60201c565b5050565b600060405180604001604052808481526020018381525090506007819080600181540180825580915050600190039060005260206000209060020201600090919091909150600082015181600001908051906020019062000332929190620003b8565b50602082015181600101908051906020019062000351929190620003b8565b5050507ffeb3900704f1da20c6c7adbbed3b6e4244f5bb27d544d1e5bad423c970434f8183836040516200038792919062000524565b60405180910390a160056000815480929190620003a4906200068d565b9190505550505050565b505050565b505050565b828054620003c69062000657565b90600052602060002090601f016020900481019282620003ea576000855562000436565b82601f106200040557805160ff191683800117855562000436565b8280016001018555821562000436579182015b828111156200043557825182559160200191906001019062000418565b5b50905062000445919062000449565b5090565b5b80821115620004645760008160009055506001016200044a565b5090565b600081519050620004798162000773565b92915050565b6000602082840312156200049257600080fd5b6000620004a28482850162000468565b91505092915050565b6000620004b8826200059e565b620004c48185620005a9565b9350620004d681856020860162000621565b620004e18162000739565b840191505092915050565b6000620004fb601f83620005a9565b915062000508826200074a565b602082019050919050565b6200051e8162000617565b82525050565b60006040820190508181036000830152620005408185620004ab565b90508181036020830152620005568184620004ab565b90509392505050565b600060208201905081810360008301526200057a81620004ec565b9050919050565b600060208201905062000598600083018462000513565b92915050565b600081519050919050565b600082825260208201905092915050565b6000620005c78262000617565b9150620005d48362000617565b9250827fffffffffffffffffffffffffffffffffffffffffffffffffffffffffffffffff038211156200060c576200060b620006db565b5b828201905092915050565b6000819050919050565b60005b838110156200064157808201518184015260208101905062000624565b8381111562000651576000848401525b50505050565b600060028204905060018216806200067057607f821691505b602082108114156200068757620006866200070a565b5b50919050565b60006200069a8262000617565b91507fffffffffffffffffffffffffffffffffffffffffffffffffffffffffffffffff821415620006d057620006cf620006db565b5b600182019050919050565b7f4e487b7100000000000000000000000000000000000000000000000000000000600052601160045260246000fd5b7f4e487b7100000000000000000000000000000000000000000000000000000000600052602260045260246000fd5b6000601f19601f8301169050919050565b7f45524332303a206d696e7420746f20746865207a65726f206164647265737300600082015250565b6200077e8162000617565b81146200078a57600080fd5b50565b611f9a806200079d6000396000f3fe608060405234801561001057600080fd5b506004361061010b5760003560e01c80638f48ec3f116100a2578063a457c2d711610071578063a457c2d7146102f7578063a9059cbb14610327578063dd62ed3e14610357578063e2bff3ba14610387578063f2409e67146103b85761010b565b80638f48ec3f1461025a57806395d89b411461028b5780639ede4fc0146102a9578063a2345fad146102c75761010b565b8063313ce567116100de578063313ce567146101ac57806339509351146101ca578063655a7c1a146101fa57806370a082311461022a5761010b565b806306fdde0314610110578063095ea7b31461012e57806318160ddd1461015e57806323b872dd1461017c575b600080fd5b6101186103d6565b604051610125919061189d565b60405180910390f35b61014860048036038101906101439190611461565b610468565b6040516101559190611882565b60405180910390f35b61016661048b565b60405161017391906119f6565b60405180910390f35b6101966004803603810190610191919061136b565b610495565b6040516101a39190611882565b60405180910390f35b6101b46104c4565b6040516101c19190611a11565b60405180910390f35b6101e460048036038101906101df9190611461565b6104cd565b6040516101f19190611882565b60405180910390f35b610214600480360381019061020f91906113ba565b610504565b6040516102219190611882565b60405180910390f35b610244600480360381019061023f9190611306565b610529565b60405161025191906119f6565b60405180910390f35b610274600480360381019061026f9190611530565b610571565b6040516102829291906118bf565b60405180910390f35b61029361072b565b6040516102a0919061189d565b60405180910390f35b6102b16107bd565b6040516102be91906119f6565b60405180910390f35b6102e160048036038101906102dc919061149d565b6107c3565b6040516102ee9190611882565b60405180910390f35b610311600480360381019061030c9190611461565b6107e6565b60405161031e9190611882565b60405180910390f35b610341600480360381019061033c9190611461565b61085d565b60405161034e9190611882565b60405180910390f35b610371600480360381019061036c919061132f565b610880565b60405161037e91906119f6565b60405180910390f35b6103a1600480360381019061039c9190611530565b610907565b6040516103af9291906118bf565b60405180910390f35b6103c0610a4b565b6040516103cd9190611860565b60405180910390f35b6060600380546103e590611be0565b80601f016020809104026020016040519081016040528092919081815260200182805461041190611be0565b801561045e5780601f106104335761010080835404028352916020019161045e565b820191906000526020600020905b81548152906001019060200180831161044157829003601f168201915b5050505050905090565b600080610473610d2e565b9050610480818585610d36565b600191505092915050565b6000600254905090565b6000806104a0610d2e565b90506104ad858285610f01565b6104b8858585610f8d565b60019150509392505050565b60006012905090565b6000806104d8610d2e565b90506104f98185856104ea8589610880565b6104f49190611af3565b610d36565b600191505092915050565b6000610511868686610495565b5061051c838361120e565b6001905095945050505050565b60008060008373ffffffffffffffffffffffffffffffffffffffff1673ffffffffffffffffffffffffffffffffffffffff168152602001908152602001600020549050919050565b606080600783815481106105ae577f4e487b7100000000000000000000000000000000000000000000000000000000600052603260045260246000fd5b9060005260206000209060020201600001600784815481106105f9577f4e487b7100000000000000000000000000000000000000000000000000000000600052603260045260246000fd5b906000526020600020906002020160010181805461061690611be0565b80601f016020809104026020016040519081016040528092919081815260200182805461064290611be0565b801561068f5780601f106106645761010080835404028352916020019161068f565b820191906000526020600020905b81548152906001019060200180831161067257829003601f168201915b505050505091508080546106a290611be0565b80601f01602080910402602001604051908101604052809291908181526020018280546106ce90611be0565b801561071b5780601f106106f05761010080835404028352916020019161071b565b820191906000526020600020905b8154815290600101906020018083116106fe57829003601f168201915b5050505050905091509150915091565b60606004805461073a90611be0565b80601f016020809104026020016040519081016040528092919081815260200182805461076690611be0565b80156107b35780601f10610788576101008083540402835291602001916107b3565b820191906000526020600020905b81548152906001019060200180831161079657829003601f168201915b5050505050905090565b60055481565b60006107cf858561085d565b506107da838361120e565b60019050949350505050565b6000806107f1610d2e565b905060006107ff8286610880565b905083811015610844576040517f08c379a000000000000000000000000000000000000000000000000000000000815260040161083b906119b6565b60405180910390fd5b6108518286868403610d36565b60019250505092915050565b600080610868610d2e565b9050610875818585610f8d565b600191505092915050565b6000600160008473ffffffffffffffffffffffffffffffffffffffff1673ffffffffffffffffffffffffffffffffffffffff16815260200190815260200160002060008373ffffffffffffffffffffffffffffffffffffffff1673ffffffffffffffffffffffffffffffffffffffff16815260200190815260200160002054905092915050565b6007818154811061091757600080fd5b906000526020600020906002020160009150905080600001805461093a90611be0565b80601f016020809104026020016040519081016040528092919081815260200182805461096690611be0565b80156109b35780601f10610988576101008083540402835291602001916109b3565b820191906000526020600020905b81548152906001019060200180831161099657829003601f168201915b5050505050908060010180546109c890611be0565b80601f01602080910402602001604051908101604052809291908181526020018280546109f490611be0565b8015610a415780601f10610a1657610100808354040283529160200191610a41565b820191906000526020600020905b815481529060010190602001808311610a2457829003601f168201915b5050505050905082565b60606007805480602002602001604051908101604052809291908181526020016000905b82821015610bc55783829060005260206000209060020201604051806040016040529081600082018054610aa290611be0565b80601f0160208091040260200160405190810160405280929190818152602001828054610ace90611be0565b8015610b1b5780601f10610af057610100808354040283529160200191610b1b565b820191906000526020600020905b815481529060010190602001808311610afe57829003601f168201915b50505050508152602001600182018054610b3490611be0565b80601f0160208091040260200160405190810160405280929190818152602001828054610b6090611be0565b8015610bad5780601f10610b8257610100808354040283529160200191610bad565b820191906000526020600020905b815481529060010190602001808311610b9057829003601f168201915b50505050508152505081526020019060010190610a6f565b50505050905090565b600073ffffffffffffffffffffffffffffffffffffffff168273ffffffffffffffffffffffffffffffffffffffff161415610c3e576040517f08c379a0000000000000000000000000000000000000000000000000000000008152600401610c35906119d6565b60405180910390fd5b610c4a6000838361126a565b8060026000828254610c5c9190611af3565b92505081905550806000808473ffffffffffffffffffffffffffffffffffffffff1673ffffffffffffffffffffffffffffffffffffffff1681526020019081526020016000206000828254610cb19190611af3565b925050819055508173ffffffffffffffffffffffffffffffffffffffff16600073ffffffffffffffffffffffffffffffffffffffff167fddf252ad1be2c89b69c2b068fc378daa952ba7f163c4a11628f55a4df523b3ef83604051610d1691906119f6565b60405180910390a3610d2a6000838361126f565b5050565b600033905090565b600073ffffffffffffffffffffffffffffffffffffffff168373ffffffffffffffffffffffffffffffffffffffff161415610da6576040517f08c379a0000000000000000000000000000000000000000000000000000000008152600401610d9d90611996565b60405180910390fd5b600073ffffffffffffffffffffffffffffffffffffffff168273ffffffffffffffffffffffffffffffffffffffff161415610e16576040517f08c379a0000000000000000000000000000000000000000000000000000000008152600401610e0d90611916565b60405180910390fd5b80600160008573ffffffffffffffffffffffffffffffffffffffff1673ffffffffffffffffffffffffffffffffffffffff16815260200190815260200160002060008473ffffffffffffffffffffffffffffffffffffffff1673ffffffffffffffffffffffffffffffffffffffff168152602001908152602001600020819055508173ffffffffffffffffffffffffffffffffffffffff168373ffffffffffffffffffffffffffffffffffffffff167f8c5be1e5ebec7d5bd14f71427d1e84f3dd0314c0f7b2291e5b200ac8c7c3b92583604051610ef491906119f6565b60405180910390a3505050565b6000610f0d8484610880565b90507fffffffffffffffffffffffffffffffffffffffffffffffffffffffffffffffff8114610f875781811015610f79576040517f08c379a0000000000000000000000000000000000000000000000000000000008152600401610f7090611936565b60405180910390fd5b610f868484848403610d36565b5b50505050565b600073ffffffffffffffffffffffffffffffffffffffff168373ffffffffffffffffffffffffffffffffffffffff161415610ffd576040517f08c379a0000000000000000000000000000000000000000000000000000000008152600401610ff490611976565b60405180910390fd5b600073ffffffffffffffffffffffffffffffffffffffff168273ffffffffffffffffffffffffffffffffffffffff16141561106d576040517f08c379a0000000000000000000000000000000000000000000000000000000008152600401611064906118f6565b60405180910390fd5b61107883838361126a565b60008060008573ffffffffffffffffffffffffffffffffffffffff1673ffffffffffffffffffffffffffffffffffffffff168152602001908152602001600020549050818110156110fe576040517f08c379a00000000000000000000000000000000000000000000000000000000081526004016110f590611956565b60405180910390fd5b8181036000808673ffffffffffffffffffffffffffffffffffffffff1673ffffffffffffffffffffffffffffffffffffffff16815260200190815260200160002081905550816000808573ffffffffffffffffffffffffffffffffffffffff1673ffffffffffffffffffffffffffffffffffffffff16815260200190815260200160002060008282546111919190611af3565b925050819055508273ffffffffffffffffffffffffffffffffffffffff168473ffffffffffffffffffffffffffffffffffffffff167fddf252ad1be2c89b69c2b068fc378daa952ba7f163c4a11628f55a4df523b3ef846040516111f591906119f6565b60405180910390a361120884848461126f565b50505050565b7f7f731b7b4a0303837e68a08203313dd7b3741c073cc72958a608262f721690e08282604051602001611242929190611831565b60405160208183030381529060405260405161125e919061189d565b60405180910390a15050565b505050565b505050565b600061128761128284611a51565b611a2c565b90508281526020810184848401111561129f57600080fd5b6112aa848285611b9e565b509392505050565b6000813590506112c181611f36565b92915050565b600082601f8301126112d857600080fd5b81356112e8848260208601611274565b91505092915050565b60008135905061130081611f4d565b92915050565b60006020828403121561131857600080fd5b6000611326848285016112b2565b91505092915050565b6000806040838503121561134257600080fd5b6000611350858286016112b2565b9250506020611361858286016112b2565b9150509250929050565b60008060006060848603121561138057600080fd5b600061138e868287016112b2565b935050602061139f868287016112b2565b92505060406113b0868287016112f1565b9150509250925092565b600080600080600060a086880312156113d257600080fd5b60006113e0888289016112b2565b95505060206113f1888289016112b2565b9450506040611402888289016112f1565b935050606086013567ffffffffffffffff81111561141f57600080fd5b61142b888289016112c7565b925050608086013567ffffffffffffffff81111561144857600080fd5b611454888289016112c7565b9150509295509295909350565b6000806040838503121561147457600080fd5b6000611482858286016112b2565b9250506020611493858286016112f1565b9150509250929050565b600080600080608085870312156114b357600080fd5b60006114c1878288016112b2565b94505060206114d2878288016112f1565b935050604085013567ffffffffffffffff8111156114ef57600080fd5b6114fb878288016112c7565b925050606085013567ffffffffffffffff81111561151857600080fd5b611524878288016112c7565b91505092959194509250565b60006020828403121561154257600080fd5b6000611550848285016112f1565b91505092915050565b600061156583836117cf565b905092915050565b600061157882611a92565b6115828185611ab5565b93508360208202850161159485611a82565b8060005b858110156115d057848403895281516115b18582611559565b94506115bc83611aa8565b925060208a01995050600181019050611598565b50829750879550505050505092915050565b6115eb81611b5b565b82525050565b60006115fc82611a9d565b6116068185611ac6565b9350611616818560208601611bad565b61161f81611cd0565b840191505092915050565b600061163582611a9d565b61163f8185611ad7565b935061164f818560208601611bad565b61165881611cd0565b840191505092915050565b600061166e82611a9d565b6116788185611ae8565b9350611688818560208601611bad565b80840191505092915050565b60006116a1602383611ad7565b91506116ac82611ce1565b604082019050919050565b60006116c4602283611ad7565b91506116cf82611d30565b604082019050919050565b60006116e7601d83611ad7565b91506116f282611d7f565b602082019050919050565b600061170a602683611ad7565b915061171582611da8565b604082019050919050565b600061172d601783611ae8565b915061173882611df7565b601782019050919050565b6000611750602583611ad7565b915061175b82611e20565b604082019050919050565b6000611773602483611ad7565b915061177e82611e6f565b604082019050919050565b6000611796602583611ad7565b91506117a182611ebe565b604082019050919050565b60006117b9601f83611ad7565b91506117c482611f0d565b602082019050919050565b600060408301600083015184820360008601526117ec82826115f1565b9150506020830151848203602086015261180682826115f1565b9150508091505092915050565b61181c81611b87565b82525050565b61182b81611b91565b82525050565b600061183d8285611663565b915061184882611720565b91506118548284611663565b91508190509392505050565b6000602082019050818103600083015261187a818461156d565b905092915050565b600060208201905061189760008301846115e2565b92915050565b600060208201905081810360008301526118b7818461162a565b905092915050565b600060408201905081810360008301526118d9818561162a565b905081810360208301526118ed818461162a565b90509392505050565b6000602082019050818103600083015261190f81611694565b9050919050565b6000602082019050818103600083015261192f816116b7565b9050919050565b6000602082019050818103600083015261194f816116da565b9050919050565b6000602082019050818103600083015261196f816116fd565b9050919050565b6000602082019050818103600083015261198f81611743565b9050919050565b600060208201905081810360008301526119af81611766565b9050919050565b600060208201905081810360008301526119cf81611789565b9050919050565b600060208201905081810360008301526119ef816117ac565b9050919050565b6000602082019050611a0b6000830184611813565b92915050565b6000602082019050611a266000830184611822565b92915050565b6000611a36611a47565b9050611a428282611c12565b919050565b6000604051905090565b600067ffffffffffffffff821115611a6c57611a6b611ca1565b5b611a7582611cd0565b9050602081019050919050565b6000819050602082019050919050565b600081519050919050565b600081519050919050565b6000602082019050919050565b600082825260208201905092915050565b600082825260208201905092915050565b600082825260208201905092915050565b600081905092915050565b6000611afe82611b87565b9150611b0983611b87565b9250827fffffffffffffffffffffffffffffffffffffffffffffffffffffffffffffffff03821115611b3e57611b3d611c43565b5b828201905092915050565b6000611b5482611b67565b9050919050565b60008115159050919050565b600073ffffffffffffffffffffffffffffffffffffffff82169050919050565b6000819050919050565b600060ff82169050919050565b82818337600083830152505050565b60005b83811015611bcb578082015181840152602081019050611bb0565b83811115611bda576000848401525b50505050565b60006002820490506001821680611bf857607f821691505b60208210811415611c0c57611c0b611c72565b5b50919050565b611c1b82611cd0565b810181811067ffffffffffffffff82111715611c3a57611c39611ca1565b5b80604052505050565b7f4e487b7100000000000000000000000000000000000000000000000000000000600052601160045260246000fd5b7f4e487b7100000000000000000000000000000000000000000000000000000000600052602260045260246000fd5b7f4e487b7100000000000000000000000000000000000000000000000000000000600052604160045260246000fd5b6000601f19601f8301169050919050565b7f45524332303a207472616e7366657220746f20746865207a65726f206164647260008201527f6573730000000000000000000000000000000000000000000000000000000000602082015250565b7f45524332303a20617070726f766520746f20746865207a65726f20616464726560008201527f7373000000000000000000000000000000000000000000000000000000000000602082015250565b7f45524332303a20696e73756666696369656e7420616c6c6f77616e6365000000600082015250565b7f45524332303a207472616e7366657220616d6f756e742065786365656473206260008201527f616c616e63650000000000000000000000000000000000000000000000000000602082015250565b7f2773206d657373616765206f6620706561636520697320000000000000000000600082015250565b7f45524332303a207472616e736665722066726f6d20746865207a65726f20616460008201527f6472657373000000000000000000000000000000000000000000000000000000602082015250565b7f45524332303a20617070726f76652066726f6d20746865207a65726f2061646460008201527f7265737300000000000000000000000000000000000000000000000000000000602082015250565b7f45524332303a2064656372656173656420616c6c6f77616e63652062656c6f7760008201527f207a65726f000000000000000000000000000000000000000000000000000000602082015250565b7f45524332303a206d696e7420746f20746865207a65726f206164647265737300600082015250565b611f3f81611b49565b8114611f4a57600080fd5b50565b611f5681611b87565b8114611f6157600080fd5b5056fea264697066735822122005e2452f05062e5124f00fca469f6d0e1ce4699b6f743215f2245d8686be672364736f6c6343000804003345766572792074696d6520796f7520627579206f722073656c6c2074686520636f696e2c2077726974652061206d657373616765206f6e2074686520626c6f636b636861696e207468617420796f75207468696e6b2077696c6c20696e737069726520776f726c64776964652070656163652e2049742063616e20626520616e20706572736f6e616c2073746f7279207468617420696e73706972657320776f726c64776964652070656163652c206f7220616e20696e73706972696e67206e6f74652e",
  "linkReferences": {},
  "deployedLinkReferences": {}
}