{
  "_format": "hh-sol-artifact-1",
  "contractName": "Exchange",
  "sourceName": "src/contracts/Exchange.sol",
  "abi": [
    {
      "inputs": [
        {
          "internalType": "address",
          "name": "_token",
          "type": "address"
        }
      ],
      "stateMutability": "nonpayable",
      "type": "constructor"
    },
    {
      "anonymous": false,
      "inputs": [
        {
          "indexed": true,
          "internalType": "address",
          "name": "owner",
          "type": "address"
        },
        {
          "indexed": true,
          "internalType": "address",
          "name": "spender",
          "type": "address"
        },
        {
          "indexed": false,
          "internalType": "uint256",
          "name": "value",
          "type": "uint256"
        }
      ],
      "name": "Approval",
      "type": "event"
    },
    {
      "anonymous": false,
      "inputs": [
        {
          "indexed": true,
          "internalType": "address",
          "name": "from",
          "type": "address"
        },
        {
          "indexed": true,
          "internalType": "address",
          "name": "to",
          "type": "address"
        },
        {
          "indexed": false,
          "internalType": "uint256",
          "name": "value",
          "type": "uint256"
        }
      ],
      "name": "Transfer",
      "type": "event"
    },
    {
      "inputs": [
        {
          "internalType": "uint256",
          "name": "_tokenAmount",
          "type": "uint256"
        }
      ],
      "name": "addLiquidity",
      "outputs": [
        {
          "internalType": "uint256",
          "name": "",
          "type": "uint256"
        }
      ],
      "stateMutability": "payable",
      "type": "function"
    },
    {
      "inputs": [
        {
          "internalType": "address",
          "name": "owner",
          "type": "address"
        },
        {
          "internalType": "address",
          "name": "spender",
          "type": "address"
        }
      ],
      "name": "allowance",
      "outputs": [
        {
          "internalType": "uint256",
          "name": "",
          "type": "uint256"
        }
      ],
      "stateMutability": "view",
      "type": "function"
    },
    {
      "inputs": [
        {
          "internalType": "address",
          "name": "spender",
          "type": "address"
        },
        {
          "internalType": "uint256",
          "name": "amount",
          "type": "uint256"
        }
      ],
      "name": "approve",
      "outputs": [
        {
          "internalType": "bool",
          "name": "",
          "type": "bool"
        }
      ],
      "stateMutability": "nonpayable",
      "type": "function"
    },
    {
      "inputs": [
        {
          "internalType": "address",
          "name": "account",
          "type": "address"
        }
      ],
      "name": "balanceOf",
      "outputs": [
        {
          "internalType": "uint256",
          "name": "",
          "type": "uint256"
        }
      ],
      "stateMutability": "view",
      "type": "function"
    },
    {
      "inputs": [],
      "name": "decimals",
      "outputs": [
        {
          "internalType": "uint8",
          "name": "",
          "type": "uint8"
        }
      ],
      "stateMutability": "view",
      "type": "function"
    },
    {
      "inputs": [
        {
          "internalType": "address",
          "name": "spender",
          "type": "address"
        },
        {
          "internalType": "uint256",
          "name": "subtractedValue",
          "type": "uint256"
        }
      ],
      "name": "decreaseAllowance",
      "outputs": [
        {
          "internalType": "bool",
          "name": "",
          "type": "bool"
        }
      ],
      "stateMutability": "nonpayable",
      "type": "function"
    },
    {
      "inputs": [
        {
          "internalType": "uint256",
          "name": "_minTokens",
          "type": "uint256"
        }
      ],
      "name": "ethToTokenSwap",
      "outputs": [],
      "stateMutability": "payable",
      "type": "function"
    },
    {
      "inputs": [
        {
          "internalType": "uint256",
          "name": "_minTokens",
          "type": "uint256"
        },
        {
          "internalType": "string",
          "name": "_name",
          "type": "string"
        },
        {
          "internalType": "string",
          "name": "_message",
          "type": "string"
        }
      ],
      "name": "ethToTokenSwapSacredOne",
      "outputs": [],
      "stateMutability": "payable",
      "type": "function"
    },
    {
      "inputs": [
        {
          "internalType": "uint256",
          "name": "_minTokens",
          "type": "uint256"
        },
        {
          "internalType": "address",
          "name": "_recipient",
          "type": "address"
        }
      ],
      "name": "ethToTokenTransfer",
      "outputs": [],
      "stateMutability": "payable",
      "type": "function"
    },
    {
      "inputs": [
        {
          "internalType": "uint256",
          "name": "_minTokens",
          "type": "uint256"
        },
        {
          "internalType": "address",
          "name": "_recipient",
          "type": "address"
        },
        {
          "internalType": "string",
          "name": "_name",
          "type": "string"
        },
        {
          "internalType": "string",
          "name": "_message",
          "type": "string"
        }
      ],
      "name": "ethToTokenTransferSacredOne",
      "outputs": [],
      "stateMutability": "payable",
      "type": "function"
    },
    {
      "inputs": [],
      "name": "factoryAddress",
      "outputs": [
        {
          "internalType": "address",
          "name": "",
          "type": "address"
        }
      ],
      "stateMutability": "view",
      "type": "function"
    },
    {
      "inputs": [
        {
          "internalType": "uint256",
          "name": "tokenSold",
          "type": "uint256"
        }
      ],
      "name": "getEthAmount",
      "outputs": [
        {
          "internalType": "uint256",
          "name": "",
          "type": "uint256"
        }
      ],
      "stateMutability": "view",
      "type": "function"
    },
    {
      "inputs": [],
      "name": "getReserve",
      "outputs": [
        {
          "internalType": "uint256",
          "name": "",
          "type": "uint256"
        }
      ],
      "stateMutability": "view",
      "type": "function"
    },
    {
      "inputs": [
        {
          "internalType": "uint256",
          "name": "_ethSold",
          "type": "uint256"
        }
      ],
      "name": "getTokenAmount",
      "outputs": [
        {
          "internalType": "uint256",
          "name": "",
          "type": "uint256"
        }
      ],
      "stateMutability": "view",
      "type": "function"
    },
    {
      "inputs": [
        {
          "internalType": "address",
          "name": "spender",
          "type": "address"
        },
        {
          "internalType": "uint256",
          "name": "addedValue",
          "type": "uint256"
        }
      ],
      "name": "increaseAllowance",
      "outputs": [
        {
          "internalType": "bool",
          "name": "",
          "type": "bool"
        }
      ],
      "stateMutability": "nonpayable",
      "type": "function"
    },
    {
      "inputs": [],
      "name": "name",
      "outputs": [
        {
          "internalType": "string",
          "name": "",
          "type": "string"
        }
      ],
      "stateMutability": "view",
      "type": "function"
    },
    {
      "inputs": [
        {
          "internalType": "uint256",
          "name": "_amount",
          "type": "uint256"
        }
      ],
      "name": "removeLiquidity",
      "outputs": [
        {
          "internalType": "uint256",
          "name": "",
          "type": "uint256"
        },
        {
          "internalType": "uint256",
          "name": "",
          "type": "uint256"
        }
      ],
      "stateMutability": "nonpayable",
      "type": "function"
    },
    {
      "inputs": [],
      "name": "symbol",
      "outputs": [
        {
          "internalType": "string",
          "name": "",
          "type": "string"
        }
      ],
      "stateMutability": "view",
      "type": "function"
    },
    {
      "inputs": [],
      "name": "tokenAddress",
      "outputs": [
        {
          "internalType": "address",
          "name": "",
          "type": "address"
        }
      ],
      "stateMutability": "view",
      "type": "function"
    },
    {
      "inputs": [
        {
          "internalType": "uint256",
          "name": "_tokensSold",
          "type": "uint256"
        },
        {
          "internalType": "uint256",
          "name": "_minEth",
          "type": "uint256"
        }
      ],
      "name": "tokenToEthSwap",
      "outputs": [],
      "stateMutability": "nonpayable",
      "type": "function"
    },
    {
      "inputs": [
        {
          "internalType": "uint256",
          "name": "_tokensSold",
          "type": "uint256"
        },
        {
          "internalType": "uint256",
          "name": "_minEth",
          "type": "uint256"
        },
        {
          "internalType": "string",
          "name": "_name",
          "type": "string"
        },
        {
          "internalType": "string",
          "name": "_message",
          "type": "string"
        }
      ],
      "name": "tokenToEthSwapSacredOne",
      "outputs": [],
      "stateMutability": "nonpayable",
      "type": "function"
    },
    {
      "inputs": [
        {
          "internalType": "uint256",
          "name": "_tokensSold",
          "type": "uint256"
        },
        {
          "internalType": "uint256",
          "name": "_minTokensBought",
          "type": "uint256"
        },
        {
          "internalType": "address",
          "name": "_tokenAddress",
          "type": "address"
        }
      ],
      "name": "tokenToTokenSwap",
      "outputs": [],
      "stateMutability": "nonpayable",
      "type": "function"
    },
    {
      "inputs": [],
      "name": "totalSupply",
      "outputs": [
        {
          "internalType": "uint256",
          "name": "",
          "type": "uint256"
        }
      ],
      "stateMutability": "view",
      "type": "function"
    },
    {
      "inputs": [
        {
          "internalType": "address",
          "name": "to",
          "type": "address"
        },
        {
          "internalType": "uint256",
          "name": "amount",
          "type": "uint256"
        }
      ],
      "name": "transfer",
      "outputs": [
        {
          "internalType": "bool",
          "name": "",
          "type": "bool"
        }
      ],
      "stateMutability": "nonpayable",
      "type": "function"
    },
    {
      "inputs": [
        {
          "internalType": "address",
          "name": "from",
          "type": "address"
        },
        {
          "internalType": "address",
          "name": "to",
          "type": "address"
        },
        {
          "internalType": "uint256",
          "name": "amount",
          "type": "uint256"
        }
      ],
      "name": "transferFrom",
      "outputs": [
        {
          "internalType": "bool",
          "name": "",
          "type": "bool"
        }
      ],
      "stateMutability": "nonpayable",
      "type": "function"
    }
  ],
  "bytecode": "0x60806040523480156200001157600080fd5b50604051620038f2380380620038f2833981810160405281019062000037919062000259565b6040518060400160405280600d81526020017f5361637265642d4465782d5631000000000000000000000000000000000000008152506040518060400160405280600981526020017f5361637265782d563100000000000000000000000000000000000000000000008152508160039080519060200190620000bb92919062000192565b508060049080519060200190620000d492919062000192565b505050600073ffffffffffffffffffffffffffffffffffffffff168173ffffffffffffffffffffffffffffffffffffffff1614156200014a576040517f08c379a00000000000000000000000000000000000000000000000000000000081526004016200014190620002ac565b60405180910390fd5b80600560006101000a81548173ffffffffffffffffffffffffffffffffffffffff021916908373ffffffffffffffffffffffffffffffffffffffff16021790555050620003bb565b828054620001a09062000313565b90600052602060002090601f016020900481019282620001c4576000855562000210565b82601f10620001df57805160ff191683800117855562000210565b8280016001018555821562000210579182015b828111156200020f578251825591602001919060010190620001f2565b5b5090506200021f919062000223565b5090565b5b808211156200023e57600081600090555060010162000224565b5090565b6000815190506200025381620003a1565b92915050565b6000602082840312156200026c57600080fd5b60006200027c8482850162000242565b91505092915050565b600062000294601583620002ce565b9150620002a18262000378565b602082019050919050565b60006020820190508181036000830152620002c78162000285565b9050919050565b600082825260208201905092915050565b6000620002ec82620002f3565b9050919050565b600073ffffffffffffffffffffffffffffffffffffffff82169050919050565b600060028204905060018216806200032c57607f821691505b6020821081141562000343576200034262000349565b5b50919050565b7f4e487b7100000000000000000000000000000000000000000000000000000000600052602260045260246000fd5b7f696e76616c696420746f6b656e20616464726573730000000000000000000000600082015250565b620003ac81620002df565b8114620003b857600080fd5b50565b61352780620003cb6000396000f3fe6080604052600436106101665760003560e01c806395d89b41116100d1578063a9059cbb1161008a578063dd62ed3e11610064578063dd62ed3e1461056b578063e0486c8a146105a8578063f7a7e324146105d1578063f979dcd7146105fa57610166565b8063a9059cbb146104c8578063bc793e9314610505578063c2507ac11461052e57610166565b806395d89b41146103b0578063966dae0e146103db5780639c8f9f23146104065780639d76ea5814610444578063a23299e91461046f578063a457c2d71461048b57610166565b806339509351116101235780633950935114610282578063476cb2e3146102bf57806351c6590a146102db57806359bf5d391461030b57806370a08231146103365780638fc7a25d1461037357610166565b806306fdde031461016b578063095ea7b31461019657806318160ddd146101d357806323b872dd146101fe578063313ce5671461023b578063389d9a4014610266575b600080fd5b34801561017757600080fd5b50610180610616565b60405161018d9190612a77565b60405180910390f35b3480156101a257600080fd5b506101bd60048036038101906101b8919061230a565b6106a8565b6040516101ca9190612a5c565b60405180910390f35b3480156101df57600080fd5b506101e86106cb565b6040516101f59190612cb9565b60405180910390f35b34801561020a57600080fd5b50610225600480360381019061022091906122bb565b6106d5565b6040516102329190612a5c565b60405180910390f35b34801561024757600080fd5b50610250610704565b60405161025d9190612d26565b60405180910390f35b610280600480360381019061027b91906123c1565b61070d565b005b34801561028e57600080fd5b506102a960048036038101906102a4919061230a565b61071b565b6040516102b69190612a5c565b60405180910390f35b6102d960048036038101906102d49190612490565b610752565b005b6102f560048036038101906102f0919061236f565b610763565b6040516103029190612cb9565b60405180910390f35b34801561031757600080fd5b50610320610988565b60405161032d9190612cb9565b60405180910390f35b34801561034257600080fd5b5061035d6004803603810190610358919061222d565b610a3a565b60405161036a9190612cb9565b60405180910390f35b34801561037f57600080fd5b5061039a6004803603810190610395919061236f565b610a82565b6040516103a79190612cb9565b60405180910390f35b3480156103bc57600080fd5b506103c5610ae5565b6040516103d29190612a77565b60405180910390f35b3480156103e757600080fd5b506103f0610b77565b6040516103fd919061292d565b60405180910390f35b34801561041257600080fd5b5061042d6004803603810190610428919061236f565b610b9d565b60405161043b929190612cfd565b60405180910390f35b34801561045057600080fd5b50610459610d3c565b604051610466919061292d565b60405180910390f35b610489600480360381019061048491906123fd565b610d62565b005b34801561049757600080fd5b506104b260048036038101906104ad919061230a565b610d74565b6040516104bf9190612a5c565b60405180910390f35b3480156104d457600080fd5b506104ef60048036038101906104ea919061230a565b610deb565b6040516104fc9190612a5c565b60405180910390f35b34801561051157600080fd5b5061052c6004803603810190610527919061259a565b610e0e565b005b34801561053a57600080fd5b506105556004803603810190610550919061236f565b611074565b6040516105629190612cb9565b60405180910390f35b34801561057757600080fd5b50610592600480360381019061058d919061227f565b6110d7565b60405161059f9190612cb9565b60405180910390f35b3480156105b457600080fd5b506105cf60048036038101906105ca919061250f565b61115e565b005b3480156105dd57600080fd5b506105f860048036038101906105f3919061254b565b6113be565b005b610614600480360381019061060f919061236f565b611645565b005b60606003805461062590612f6a565b80601f016020809104026020016040519081016040528092919081815260200182805461065190612f6a565b801561069e5780601f106106735761010080835404028352916020019161069e565b820191906000526020600020905b81548152906001019060200180831161068157829003601f168201915b5050505050905090565b6000806106b3611652565b90506106c081858561165a565b600191505092915050565b6000600254905090565b6000806106e0611652565b90506106ed858285611825565b6106f88585856118b1565b60019150509392505050565b60006012905090565b6107178282611b32565b5050565b600080610726611652565b905061074781858561073885896110d7565b6107429190612dbe565b61165a565b600191505092915050565b61075e83338484611c51565b505050565b600080600560009054906101000a900473ffffffffffffffffffffffffffffffffffffffff1690506000610795610988565b1415610844578073ffffffffffffffffffffffffffffffffffffffff166323b872dd3330866040518463ffffffff1660e01b81526004016107d893929190612948565b602060405180830381600087803b1580156107f257600080fd5b505af1158015610806573d6000803e3d6000fd5b505050506040513d601f19601f8201168201806040525081019061082a9190612346565b50600047905061083a3382611d76565b8092505050610983565b600034476108529190612e9f565b9050600061085e610988565b90506000828261086e9190612e14565b346108799190612e45565b9050808610156108be576040517f08c379a00000000000000000000000000000000000000000000000000000000081526004016108b590612bd9565b60405180910390fd5b8373ffffffffffffffffffffffffffffffffffffffff166323b872dd3330846040518463ffffffff1660e01b81526004016108fb93929190612948565b602060405180830381600087803b15801561091557600080fd5b505af1158015610929573d6000803e3d6000fd5b505050506040513d601f19601f8201168201806040525081019061094d9190612346565b506000833461095a6106cb565b6109649190612e45565b61096e9190612e14565b905061097a3382611d76565b80955050505050505b919050565b6000600560009054906101000a900473ffffffffffffffffffffffffffffffffffffffff1673ffffffffffffffffffffffffffffffffffffffff166370a08231306040518263ffffffff1660e01b81526004016109e5919061292d565b60206040518083038186803b1580156109fd57600080fd5b505afa158015610a11573d6000803e3d6000fd5b505050506040513d601f19601f82011682018060405250810190610a359190612398565b905090565b60008060008373ffffffffffffffffffffffffffffffffffffffff1673ffffffffffffffffffffffffffffffffffffffff168152602001908152602001600020549050919050565b6000808211610ac6576040517f08c379a0000000000000000000000000000000000000000000000000000000008152600401610abd90612bb9565b60405180910390fd5b6000610ad0610988565b9050610add838247611ed6565b915050919050565b606060048054610af490612f6a565b80601f0160208091040260200160405190810160405280929190818152602001828054610b2090612f6a565b8015610b6d5780601f10610b4257610100808354040283529160200191610b6d565b820191906000526020600020905b815481529060010190602001808311610b5057829003601f168201915b5050505050905090565b600660009054906101000a900473ffffffffffffffffffffffffffffffffffffffff1681565b60008060008311610be3576040517f08c379a0000000000000000000000000000000000000000000000000000000008152600401610bda90612b79565b60405180910390fd5b6000610bed6106cb565b8447610bf99190612e45565b610c039190612e14565b90506000610c0f6106cb565b85610c18610988565b610c229190612e45565b610c2c9190612e14565b9050610c383386611f7b565b3373ffffffffffffffffffffffffffffffffffffffff166108fc839081150290604051600060405180830381858888f19350505050158015610c7e573d6000803e3d6000fd5b50600560009054906101000a900473ffffffffffffffffffffffffffffffffffffffff1673ffffffffffffffffffffffffffffffffffffffff1663a9059cbb33836040518363ffffffff1660e01b8152600401610cdc9291906129e0565b602060405180830381600087803b158015610cf657600080fd5b505af1158015610d0a573d6000803e3d6000fd5b505050506040513d601f19601f82011682018060405250810190610d2e9190612346565b508181935093505050915091565b600560009054906101000a900473ffffffffffffffffffffffffffffffffffffffff1681565b610d6e84848484611c51565b50505050565b600080610d7f611652565b90506000610d8d82866110d7565b905083811015610dd2576040517f08c379a0000000000000000000000000000000000000000000000000000000008152600401610dc990612c79565b60405180910390fd5b610ddf828686840361165a565b60019250505092915050565b600080610df6611652565b9050610e038185856118b1565b600191505092915050565b6000610ec585600560009054906101000a900473ffffffffffffffffffffffffffffffffffffffff1673ffffffffffffffffffffffffffffffffffffffff166370a08231306040518263ffffffff1660e01b8152600401610e6f919061292d565b60206040518083038186803b158015610e8757600080fd5b505afa158015610e9b573d6000803e3d6000fd5b505050506040513d601f19601f82011682018060405250810190610ebf9190612398565b47611ed6565b905083811015610f0a576040517f08c379a0000000000000000000000000000000000000000000000000000000008152600401610f0190612b99565b60405180910390fd5b600560009054906101000a900473ffffffffffffffffffffffffffffffffffffffff1673ffffffffffffffffffffffffffffffffffffffff1663655a7c1a33308887876040518663ffffffff1660e01b8152600401610f6d95949392919061297f565b602060405180830381600087803b158015610f8757600080fd5b505af1158015610f9b573d6000803e3d6000fd5b505050506040513d601f19601f82011682018060405250810190610fbf9190612346565b5060003373ffffffffffffffffffffffffffffffffffffffff1682604051610fe690612918565b60006040518083038185875af1925050503d8060008114611023576040519150601f19603f3d011682016040523d82523d6000602084013e611028565b606091505b505090508061106c576040517f08c379a000000000000000000000000000000000000000000000000000000000815260040161106390612af9565b60405180910390fd5b505050505050565b60008082116110b8576040517f08c379a00000000000000000000000000000000000000000000000000000000081526004016110af90612bb9565b60405180910390fd5b60006110c2610988565b90506110cf834783611ed6565b915050919050565b6000600160008473ffffffffffffffffffffffffffffffffffffffff1673ffffffffffffffffffffffffffffffffffffffff16815260200190815260200160002060008373ffffffffffffffffffffffffffffffffffffffff1673ffffffffffffffffffffffffffffffffffffffff16815260200190815260200160002054905092915050565b600061121583600560009054906101000a900473ffffffffffffffffffffffffffffffffffffffff1673ffffffffffffffffffffffffffffffffffffffff166370a08231306040518263ffffffff1660e01b81526004016111bf919061292d565b60206040518083038186803b1580156111d757600080fd5b505afa1580156111eb573d6000803e3d6000fd5b505050506040513d601f19601f8201168201806040525081019061120f9190612398565b47611ed6565b90508181101561125a576040517f08c379a000000000000000000000000000000000000000000000000000000000815260040161125190612b99565b60405180910390fd5b600560009054906101000a900473ffffffffffffffffffffffffffffffffffffffff1673ffffffffffffffffffffffffffffffffffffffff166323b872dd3330866040518463ffffffff1660e01b81526004016112b993929190612948565b602060405180830381600087803b1580156112d357600080fd5b505af11580156112e7573d6000803e3d6000fd5b505050506040513d601f19601f8201168201806040525081019061130b9190612346565b5060003373ffffffffffffffffffffffffffffffffffffffff168260405161133290612918565b60006040518083038185875af1925050503d806000811461136f576040519150601f19603f3d011682016040523d82523d6000602084013e611374565b606091505b50509050806113b8576040517f08c379a00000000000000000000000000000000000000000000000000000000081526004016113af90612af9565b60405180910390fd5b50505050565b6000600660009054906101000a900473ffffffffffffffffffffffffffffffffffffffff1673ffffffffffffffffffffffffffffffffffffffff166306f2bf62836040518263ffffffff1660e01b815260040161141b919061292d565b602060405180830381600087803b15801561143557600080fd5b505af1158015611449573d6000803e3d6000fd5b505050506040513d601f19601f8201168201806040525081019061146d9190612256565b90503073ffffffffffffffffffffffffffffffffffffffff168173ffffffffffffffffffffffffffffffffffffffff16141580156114d85750600073ffffffffffffffffffffffffffffffffffffffff168173ffffffffffffffffffffffffffffffffffffffff1614155b611517576040517f08c379a000000000000000000000000000000000000000000000000000000000815260040161150e90612b39565b60405180910390fd5b60006115ce85600560009054906101000a900473ffffffffffffffffffffffffffffffffffffffff1673ffffffffffffffffffffffffffffffffffffffff166370a08231306040518263ffffffff1660e01b8152600401611578919061292d565b60206040518083038186803b15801561159057600080fd5b505afa1580156115a4573d6000803e3d6000fd5b505050506040513d601f19601f820116820180604052508101906115c89190612398565b47611ed6565b90508273ffffffffffffffffffffffffffffffffffffffff1663389d9a408286336040518463ffffffff1660e01b815260040161160c929190612cd4565b6000604051808303818588803b15801561162557600080fd5b505af1158015611639573d6000803e3d6000fd5b50505050505050505050565b61164f8133611b32565b50565b600033905090565b600073ffffffffffffffffffffffffffffffffffffffff168373ffffffffffffffffffffffffffffffffffffffff1614156116ca576040517f08c379a00000000000000000000000000000000000000000000000000000000081526004016116c190612c39565b60405180910390fd5b600073ffffffffffffffffffffffffffffffffffffffff168273ffffffffffffffffffffffffffffffffffffffff16141561173a576040517f08c379a000000000000000000000000000000000000000000000000000000000815260040161173190612ad9565b60405180910390fd5b80600160008573ffffffffffffffffffffffffffffffffffffffff1673ffffffffffffffffffffffffffffffffffffffff16815260200190815260200160002060008473ffffffffffffffffffffffffffffffffffffffff1673ffffffffffffffffffffffffffffffffffffffff168152602001908152602001600020819055508173ffffffffffffffffffffffffffffffffffffffff168373ffffffffffffffffffffffffffffffffffffffff167f8c5be1e5ebec7d5bd14f71427d1e84f3dd0314c0f7b2291e5b200ac8c7c3b925836040516118189190612cb9565b60405180910390a3505050565b600061183184846110d7565b90507fffffffffffffffffffffffffffffffffffffffffffffffffffffffffffffffff81146118ab578181101561189d576040517f08c379a000000000000000000000000000000000000000000000000000000000815260040161189490612b19565b60405180910390fd5b6118aa848484840361165a565b5b50505050565b600073ffffffffffffffffffffffffffffffffffffffff168373ffffffffffffffffffffffffffffffffffffffff161415611921576040517f08c379a000000000000000000000000000000000000000000000000000000000815260040161191890612c19565b60405180910390fd5b600073ffffffffffffffffffffffffffffffffffffffff168273ffffffffffffffffffffffffffffffffffffffff161415611991576040517f08c379a000000000000000000000000000000000000000000000000000000000815260040161198890612a99565b60405180910390fd5b61199c838383612152565b60008060008573ffffffffffffffffffffffffffffffffffffffff1673ffffffffffffffffffffffffffffffffffffffff16815260200190815260200160002054905081811015611a22576040517f08c379a0000000000000000000000000000000000000000000000000000000008152600401611a1990612b59565b60405180910390fd5b8181036000808673ffffffffffffffffffffffffffffffffffffffff1673ffffffffffffffffffffffffffffffffffffffff16815260200190815260200160002081905550816000808573ffffffffffffffffffffffffffffffffffffffff1673ffffffffffffffffffffffffffffffffffffffff1681526020019081526020016000206000828254611ab59190612dbe565b925050819055508273ffffffffffffffffffffffffffffffffffffffff168473ffffffffffffffffffffffffffffffffffffffff167fddf252ad1be2c89b69c2b068fc378daa952ba7f163c4a11628f55a4df523b3ef84604051611b199190612cb9565b60405180910390a3611b2c848484612157565b50505050565b6000611b3c610988565b90506000611b56343447611b509190612e9f565b84611ed6565b905083811015611b9b576040517f08c379a0000000000000000000000000000000000000000000000000000000008152600401611b9290612b99565b60405180910390fd5b600560009054906101000a900473ffffffffffffffffffffffffffffffffffffffff1673ffffffffffffffffffffffffffffffffffffffff1663a9059cbb84836040518363ffffffff1660e01b8152600401611bf89291906129e0565b602060405180830381600087803b158015611c1257600080fd5b505af1158015611c26573d6000803e3d6000fd5b505050506040513d601f19601f82011682018060405250810190611c4a9190612346565b5050505050565b6000611c5b610988565b90506000611c75343447611c6f9190612e9f565b84611ed6565b905085811015611cba576040517f08c379a0000000000000000000000000000000000000000000000000000000008152600401611cb190612b99565b60405180910390fd5b600560009054906101000a900473ffffffffffffffffffffffffffffffffffffffff1673ffffffffffffffffffffffffffffffffffffffff1663a2345fad868387876040518563ffffffff1660e01b8152600401611d1b9493929190612a09565b602060405180830381600087803b158015611d3557600080fd5b505af1158015611d49573d6000803e3d6000fd5b505050506040513d601f19601f82011682018060405250810190611d6d9190612346565b50505050505050565b600073ffffffffffffffffffffffffffffffffffffffff168273ffffffffffffffffffffffffffffffffffffffff161415611de6576040517f08c379a0000000000000000000000000000000000000000000000000000000008152600401611ddd90612c99565b60405180910390fd5b611df260008383612152565b8060026000828254611e049190612dbe565b92505081905550806000808473ffffffffffffffffffffffffffffffffffffffff1673ffffffffffffffffffffffffffffffffffffffff1681526020019081526020016000206000828254611e599190612dbe565b925050819055508173ffffffffffffffffffffffffffffffffffffffff16600073ffffffffffffffffffffffffffffffffffffffff167fddf252ad1be2c89b69c2b068fc378daa952ba7f163c4a11628f55a4df523b3ef83604051611ebe9190612cb9565b60405180910390a3611ed260008383612157565b5050565b60008083118015611ee75750600082115b611f26576040517f08c379a0000000000000000000000000000000000000000000000000000000008152600401611f1d90612c59565b60405180910390fd5b6000606385611f359190612e45565b905060008382611f459190612e45565b9050600082606487611f579190612e45565b611f619190612dbe565b90508082611f6f9190612e14565b93505050509392505050565b600073ffffffffffffffffffffffffffffffffffffffff168273ffffffffffffffffffffffffffffffffffffffff161415611feb576040517f08c379a0000000000000000000000000000000000000000000000000000000008152600401611fe290612bf9565b60405180910390fd5b611ff782600083612152565b60008060008473ffffffffffffffffffffffffffffffffffffffff1673ffffffffffffffffffffffffffffffffffffffff1681526020019081526020016000205490508181101561207d576040517f08c379a000000000000000000000000000000000000000000000000000000000815260040161207490612ab9565b60405180910390fd5b8181036000808573ffffffffffffffffffffffffffffffffffffffff1673ffffffffffffffffffffffffffffffffffffffff1681526020019081526020016000208190555081600260008282546120d49190612e9f565b92505081905550600073ffffffffffffffffffffffffffffffffffffffff168373ffffffffffffffffffffffffffffffffffffffff167fddf252ad1be2c89b69c2b068fc378daa952ba7f163c4a11628f55a4df523b3ef846040516121399190612cb9565b60405180910390a361214d83600084612157565b505050565b505050565b505050565b600061216f61216a84612d66565b612d41565b90508281526020810184848401111561218757600080fd5b612192848285612f28565b509392505050565b6000813590506121a9816134ac565b92915050565b6000815190506121be816134ac565b92915050565b6000815190506121d3816134c3565b92915050565b600082601f8301126121ea57600080fd5b81356121fa84826020860161215c565b91505092915050565b600081359050612212816134da565b92915050565b600081519050612227816134da565b92915050565b60006020828403121561223f57600080fd5b600061224d8482850161219a565b91505092915050565b60006020828403121561226857600080fd5b6000612276848285016121af565b91505092915050565b6000806040838503121561229257600080fd5b60006122a08582860161219a565b92505060206122b18582860161219a565b9150509250929050565b6000806000606084860312156122d057600080fd5b60006122de8682870161219a565b93505060206122ef8682870161219a565b925050604061230086828701612203565b9150509250925092565b6000806040838503121561231d57600080fd5b600061232b8582860161219a565b925050602061233c85828601612203565b9150509250929050565b60006020828403121561235857600080fd5b6000612366848285016121c4565b91505092915050565b60006020828403121561238157600080fd5b600061238f84828501612203565b91505092915050565b6000602082840312156123aa57600080fd5b60006123b884828501612218565b91505092915050565b600080604083850312156123d457600080fd5b60006123e285828601612203565b92505060206123f38582860161219a565b9150509250929050565b6000806000806080858703121561241357600080fd5b600061242187828801612203565b94505060206124328782880161219a565b935050604085013567ffffffffffffffff81111561244f57600080fd5b61245b878288016121d9565b925050606085013567ffffffffffffffff81111561247857600080fd5b612484878288016121d9565b91505092959194509250565b6000806000606084860312156124a557600080fd5b60006124b386828701612203565b935050602084013567ffffffffffffffff8111156124d057600080fd5b6124dc868287016121d9565b925050604084013567ffffffffffffffff8111156124f957600080fd5b612505868287016121d9565b9150509250925092565b6000806040838503121561252257600080fd5b600061253085828601612203565b925050602061254185828601612203565b9150509250929050565b60008060006060848603121561256057600080fd5b600061256e86828701612203565b935050602061257f86828701612203565b92505060406125908682870161219a565b9150509250925092565b600080600080608085870312156125b057600080fd5b60006125be87828801612203565b94505060206125cf87828801612203565b935050604085013567ffffffffffffffff8111156125ec57600080fd5b6125f8878288016121d9565b925050606085013567ffffffffffffffff81111561261557600080fd5b612621878288016121d9565b91505092959194509250565b61263681612ed3565b82525050565b61264581612ee5565b82525050565b600061265682612d97565b6126608185612dad565b9350612670818560208601612f37565b61267981613089565b840191505092915050565b6000612691602383612dad565b915061269c8261309a565b604082019050919050565b60006126b4602283612dad565b91506126bf826130e9565b604082019050919050565b60006126d7602283612dad565b91506126e282613138565b604082019050919050565b60006126fa601383612dad565b915061270582613187565b602082019050919050565b600061271d601d83612dad565b9150612728826131b0565b602082019050919050565b6000612740601883612dad565b915061274b826131d9565b602082019050919050565b6000612763602683612dad565b915061276e82613202565b604082019050919050565b6000612786601983612dad565b915061279182613251565b602082019050919050565b60006127a9601683612dad565b91506127b48261327a565b602082019050919050565b60006127cc601a83612dad565b91506127d7826132a3565b602082019050919050565b60006127ef602283612dad565b91506127fa826132cc565b604082019050919050565b6000612812602183612dad565b915061281d8261331b565b604082019050919050565b6000612835602583612dad565b91506128408261336a565b604082019050919050565b6000612858600083612da2565b9150612863826133b9565b600082019050919050565b600061287b602483612dad565b9150612886826133bc565b604082019050919050565b600061289e601083612dad565b91506128a98261340b565b602082019050919050565b60006128c1602583612dad565b91506128cc82613434565b604082019050919050565b60006128e4601f83612dad565b91506128ef82613483565b602082019050919050565b61290381612f11565b82525050565b61291281612f1b565b82525050565b60006129238261284b565b9150819050919050565b6000602082019050612942600083018461262d565b92915050565b600060608201905061295d600083018661262d565b61296a602083018561262d565b61297760408301846128fa565b949350505050565b600060a082019050612994600083018861262d565b6129a1602083018761262d565b6129ae60408301866128fa565b81810360608301526129c0818561264b565b905081810360808301526129d4818461264b565b90509695505050505050565b60006040820190506129f5600083018561262d565b612a0260208301846128fa565b9392505050565b6000608082019050612a1e600083018761262d565b612a2b60208301866128fa565b8181036040830152612a3d818561264b565b90508181036060830152612a51818461264b565b905095945050505050565b6000602082019050612a71600083018461263c565b92915050565b60006020820190508181036000830152612a91818461264b565b905092915050565b60006020820190508181036000830152612ab281612684565b9050919050565b60006020820190508181036000830152612ad2816126a7565b9050919050565b60006020820190508181036000830152612af2816126ca565b9050919050565b60006020820190508181036000830152612b12816126ed565b9050919050565b60006020820190508181036000830152612b3281612710565b9050919050565b60006020820190508181036000830152612b5281612733565b9050919050565b60006020820190508181036000830152612b7281612756565b9050919050565b60006020820190508181036000830152612b9281612779565b9050919050565b60006020820190508181036000830152612bb28161279c565b9050919050565b60006020820190508181036000830152612bd2816127bf565b9050919050565b60006020820190508181036000830152612bf2816127e2565b9050919050565b60006020820190508181036000830152612c1281612805565b9050919050565b60006020820190508181036000830152612c3281612828565b9050919050565b60006020820190508181036000830152612c528161286e565b9050919050565b60006020820190508181036000830152612c7281612891565b9050919050565b60006020820190508181036000830152612c92816128b4565b9050919050565b60006020820190508181036000830152612cb2816128d7565b9050919050565b6000602082019050612cce60008301846128fa565b92915050565b6000604082019050612ce960008301856128fa565b612cf6602083018461262d565b9392505050565b6000604082019050612d1260008301856128fa565b612d1f60208301846128fa565b9392505050565b6000602082019050612d3b6000830184612909565b92915050565b6000612d4b612d5c565b9050612d578282612f9c565b919050565b6000604051905090565b600067ffffffffffffffff821115612d8157612d8061305a565b5b612d8a82613089565b9050602081019050919050565b600081519050919050565b600081905092915050565b600082825260208201905092915050565b6000612dc982612f11565b9150612dd483612f11565b9250827fffffffffffffffffffffffffffffffffffffffffffffffffffffffffffffffff03821115612e0957612e08612fcd565b5b828201905092915050565b6000612e1f82612f11565b9150612e2a83612f11565b925082612e3a57612e39612ffc565b5b828204905092915050565b6000612e5082612f11565b9150612e5b83612f11565b9250817fffffffffffffffffffffffffffffffffffffffffffffffffffffffffffffffff0483118215151615612e9457612e93612fcd565b5b828202905092915050565b6000612eaa82612f11565b9150612eb583612f11565b925082821015612ec857612ec7612fcd565b5b828203905092915050565b6000612ede82612ef1565b9050919050565b60008115159050919050565b600073ffffffffffffffffffffffffffffffffffffffff82169050919050565b6000819050919050565b600060ff82169050919050565b82818337600083830152505050565b60005b83811015612f55578082015181840152602081019050612f3a565b83811115612f64576000848401525b50505050565b60006002820490506001821680612f8257607f821691505b60208210811415612f9657612f9561302b565b5b50919050565b612fa582613089565b810181811067ffffffffffffffff82111715612fc457612fc361305a565b5b80604052505050565b7f4e487b7100000000000000000000000000000000000000000000000000000000600052601160045260246000fd5b7f4e487b7100000000000000000000000000000000000000000000000000000000600052601260045260246000fd5b7f4e487b7100000000000000000000000000000000000000000000000000000000600052602260045260246000fd5b7f4e487b7100000000000000000000000000000000000000000000000000000000600052604160045260246000fd5b6000601f19601f8301169050919050565b7f45524332303a207472616e7366657220746f20746865207a65726f206164647260008201527f6573730000000000000000000000000000000000000000000000000000000000602082015250565b7f45524332303a206275726e20616d6f756e7420657863656564732062616c616e60008201527f6365000000000000000000000000000000000000000000000000000000000000602082015250565b7f45524332303a20617070726f766520746f20746865207a65726f20616464726560008201527f7373000000000000000000000000000000000000000000000000000000000000602082015250565b7f457468207472616e73666572206661696c656400000000000000000000000000600082015250565b7f45524332303a20696e73756666696369656e7420616c6c6f77616e6365000000600082015250565b7f65786368616e6765206164647265737320696e76616c69640000000000000000600082015250565b7f45524332303a207472616e7366657220616d6f756e742065786365656473206260008201527f616c616e63650000000000000000000000000000000000000000000000000000602082015250565b7f6e6565647320746f206265206c6172676572207468616e203000000000000000600082015250565b7f736c697070616765206f7574206f6620626f756e647300000000000000000000600082015250565b7f616d6f756e74206e6565647320746f2062652061626f76652030000000000000600082015250565b7f6e6f7420656e6f75676820746f6b656e7320666f7220746865207472616e736660008201527f6572000000000000000000000000000000000000000000000000000000000000602082015250565b7f45524332303a206275726e2066726f6d20746865207a65726f2061646472657360008201527f7300000000000000000000000000000000000000000000000000000000000000602082015250565b7f45524332303a207472616e736665722066726f6d20746865207a65726f20616460008201527f6472657373000000000000000000000000000000000000000000000000000000602082015250565b50565b7f45524332303a20617070726f76652066726f6d20746865207a65726f2061646460008201527f7265737300000000000000000000000000000000000000000000000000000000602082015250565b7f696e76616c696420726573657276657300000000000000000000000000000000600082015250565b7f45524332303a2064656372656173656420616c6c6f77616e63652062656c6f7760008201527f207a65726f000000000000000000000000000000000000000000000000000000602082015250565b7f45524332303a206d696e7420746f20746865207a65726f206164647265737300600082015250565b6134b581612ed3565b81146134c057600080fd5b50565b6134cc81612ee5565b81146134d757600080fd5b50565b6134e381612f11565b81146134ee57600080fd5b5056fea2646970667358221220c44e933c09f156eceb17b05fe978a229f9d33a108f673dad7ef8e49b18f2aa2064736f6c63430008040033",
  "linkReferences": {},
  "deployedLinkReferences": {}
}